{
  "abi": [
    {
      "inputs": [
        {
          "internalType": "address",
          "name": "_paymentToken",
          "type": "address"
        }
      ],
      "stateMutability": "nonpayable",
      "type": "constructor"
    },
    {
      "anonymous": false,
      "inputs": [
        {
          "indexed": true,
          "internalType": "address",
          "name": "owner",
          "type": "address"
        },
        {
          "indexed": true,
          "internalType": "address",
          "name": "approved",
          "type": "address"
        },
        {
          "indexed": true,
          "internalType": "uint256",
          "name": "tokenId",
          "type": "uint256"
        }
      ],
      "name": "Approval",
      "type": "event"
    },
    {
      "anonymous": false,
      "inputs": [
        {
          "indexed": true,
          "internalType": "address",
          "name": "owner",
          "type": "address"
        },
        {
          "indexed": true,
          "internalType": "address",
          "name": "operator",
          "type": "address"
        },
        {
          "indexed": false,
          "internalType": "bool",
          "name": "approved",
          "type": "bool"
        }
      ],
      "name": "ApprovalForAll",
      "type": "event"
    },
    {
      "anonymous": false,
      "inputs": [
        {
          "indexed": true,
          "internalType": "address",
          "name": "previousOwner",
          "type": "address"
        },
        {
          "indexed": true,
          "internalType": "address",
          "name": "newOwner",
          "type": "address"
        }
      ],
      "name": "OwnershipTransferred",
      "type": "event"
    },
    {
      "anonymous": false,
      "inputs": [
        {
          "indexed": false,
          "internalType": "address",
          "name": "account",
          "type": "address"
        }
      ],
      "name": "Paused",
      "type": "event"
    },
    {
      "anonymous": false,
      "inputs": [
        {
          "indexed": true,
          "internalType": "address",
          "name": "from",
          "type": "address"
        },
        {
          "indexed": true,
          "internalType": "address",
          "name": "to",
          "type": "address"
        },
        {
          "indexed": true,
          "internalType": "uint256",
          "name": "tokenId",
          "type": "uint256"
        }
      ],
      "name": "Transfer",
      "type": "event"
    },
    {
      "anonymous": false,
      "inputs": [
        {
          "indexed": false,
          "internalType": "address",
          "name": "account",
          "type": "address"
        }
      ],
      "name": "Unpaused",
      "type": "event"
    },
    {
      "inputs": [],
      "name": "BOOSTER_PACK_COST",
      "outputs": [
        {
          "internalType": "uint256",
          "name": "",
          "type": "uint256"
        }
      ],
      "stateMutability": "view",
      "type": "function"
    },
    {
      "inputs": [],
      "name": "BURN_REWARD",
      "outputs": [
        {
          "internalType": "uint256",
          "name": "",
          "type": "uint256"
        }
      ],
      "stateMutability": "view",
      "type": "function"
    },
    {
      "inputs": [],
      "name": "LEGENDARY_PROBABILITY",
      "outputs": [
        {
          "internalType": "uint256",
          "name": "",
          "type": "uint256"
        }
      ],
      "stateMutability": "view",
      "type": "function"
    },
    {
      "inputs": [],
      "name": "RARE_PROBABILITY",
      "outputs": [
        {
          "internalType": "uint256",
          "name": "",
          "type": "uint256"
        }
      ],
      "stateMutability": "view",
      "type": "function"
    },
    {
      "inputs": [
        {
          "internalType": "uint256",
          "name": "cantidadCriaturas",
          "type": "uint256"
        },
        {
          "internalType": "uint256",
          "name": "cantidadHabilidades",
          "type": "uint256"
        },
        {
          "internalType": "uint256",
          "name": "cantidadObjetos",
          "type": "uint256"
        },
        {
          "internalType": "uint256",
          "name": "stockInicial",
          "type": "uint256"
        }
      ],
      "name": "addCardsSet",
      "outputs": [],
      "stateMutability": "nonpayable",
      "type": "function"
    },
    {
      "inputs": [
        {
          "internalType": "address",
          "name": "to",
          "type": "address"
        },
        {
          "internalType": "uint256",
          "name": "tokenId",
          "type": "uint256"
        }
      ],
      "name": "approve",
      "outputs": [],
      "stateMutability": "nonpayable",
      "type": "function"
    },
    {
      "inputs": [
        {
          "internalType": "address",
          "name": "owner",
          "type": "address"
        }
      ],
      "name": "balanceOf",
      "outputs": [
        {
          "internalType": "uint256",
          "name": "",
          "type": "uint256"
        }
      ],
      "stateMutability": "view",
      "type": "function"
    },
    {
      "inputs": [
        {
          "internalType": "uint256",
          "name": "tokenId",
          "type": "uint256"
        }
      ],
      "name": "burn",
      "outputs": [],
      "stateMutability": "nonpayable",
      "type": "function"
    },
    {
      "inputs": [],
      "name": "burnLimit",
      "outputs": [
        {
          "internalType": "uint256",
          "name": "",
          "type": "uint256"
        }
      ],
      "stateMutability": "view",
      "type": "function"
    },
    {
      "inputs": [],
      "name": "burnTimeFrame",
      "outputs": [
        {
          "internalType": "uint256",
          "name": "",
          "type": "uint256"
        }
      ],
      "stateMutability": "view",
      "type": "function"
    },
    {
      "inputs": [
        {
          "internalType": "uint8",
          "name": "_cardType",
          "type": "uint8"
        }
      ],
      "name": "buyBoosterPack",
      "outputs": [],
      "stateMutability": "nonpayable",
      "type": "function"
    },
    {
      "inputs": [
        {
          "internalType": "uint256",
          "name": "",
          "type": "uint256"
        }
      ],
      "name": "cardStock",
      "outputs": [
        {
          "internalType": "uint256",
          "name": "",
          "type": "uint256"
        }
      ],
      "stateMutability": "view",
      "type": "function"
    },
    {
      "inputs": [
        {
          "internalType": "uint256",
          "name": "",
          "type": "uint256"
        }
      ],
      "name": "cards",
      "outputs": [
        {
          "internalType": "uint256",
          "name": "cardId",
          "type": "uint256"
        },
        {
          "internalType": "uint8",
          "name": "rarity",
          "type": "uint8"
        }
      ],
      "stateMutability": "view",
      "type": "function"
    },
    {
      "inputs": [
        {
          "internalType": "uint256",
          "name": "",
          "type": "uint256"
        }
      ],
      "name": "criaturasDisponibles",
      "outputs": [
        {
          "internalType": "uint256",
          "name": "",
          "type": "uint256"
        }
      ],
      "stateMutability": "view",
      "type": "function"
    },
    {
      "inputs": [
        {
          "internalType": "uint256",
          "name": "tokenId",
          "type": "uint256"
        }
      ],
      "name": "getApproved",
      "outputs": [
        {
          "internalType": "address",
          "name": "",
          "type": "address"
        }
      ],
      "stateMutability": "view",
      "type": "function"
    },
    {
      "inputs": [
        {
          "internalType": "uint256",
          "name": "",
          "type": "uint256"
        }
      ],
      "name": "habilidadesDisponibles",
      "outputs": [
        {
          "internalType": "uint256",
          "name": "",
          "type": "uint256"
        }
      ],
      "stateMutability": "view",
      "type": "function"
    },
    {
      "inputs": [
        {
          "internalType": "address",
          "name": "owner",
          "type": "address"
        },
        {
          "internalType": "address",
          "name": "operator",
          "type": "address"
        }
      ],
      "name": "isApprovedForAll",
      "outputs": [
        {
          "internalType": "bool",
          "name": "",
          "type": "bool"
        }
      ],
      "stateMutability": "view",
      "type": "function"
    },
    {
      "inputs": [],
      "name": "name",
      "outputs": [
        {
          "internalType": "string",
          "name": "",
          "type": "string"
        }
      ],
      "stateMutability": "view",
      "type": "function"
    },
    {
      "inputs": [
        {
          "internalType": "uint256",
          "name": "",
          "type": "uint256"
        }
      ],
      "name": "objetosDisponibles",
      "outputs": [
        {
          "internalType": "uint256",
          "name": "",
          "type": "uint256"
        }
      ],
      "stateMutability": "view",
      "type": "function"
    },
    {
      "inputs": [],
      "name": "owner",
      "outputs": [
        {
          "internalType": "address",
          "name": "",
          "type": "address"
        }
      ],
      "stateMutability": "view",
      "type": "function"
    },
    {
      "inputs": [
        {
          "internalType": "uint256",
          "name": "tokenId",
          "type": "uint256"
        }
      ],
      "name": "ownerOf",
      "outputs": [
        {
          "internalType": "address",
          "name": "",
          "type": "address"
        }
      ],
      "stateMutability": "view",
      "type": "function"
    },
    {
      "inputs": [],
      "name": "pauseContract",
      "outputs": [],
      "stateMutability": "nonpayable",
      "type": "function"
    },
    {
      "inputs": [],
      "name": "paused",
      "outputs": [
        {
          "internalType": "bool",
          "name": "",
          "type": "bool"
        }
      ],
      "stateMutability": "view",
      "type": "function"
    },
    {
      "inputs": [],
      "name": "paymentToken",
      "outputs": [
        {
          "internalType": "contract IERC20",
          "name": "",
          "type": "address"
        }
      ],
      "stateMutability": "view",
      "type": "function"
    },
    {
      "inputs": [
        {
          "internalType": "uint256",
          "name": "_cardId",
          "type": "uint256"
        }
      ],
      "name": "remainingCards",
      "outputs": [
        {
          "internalType": "uint256",
          "name": "",
          "type": "uint256"
        }
      ],
      "stateMutability": "view",
      "type": "function"
    },
    {
      "inputs": [],
      "name": "renounceOwnership",
      "outputs": [],
      "stateMutability": "nonpayable",
      "type": "function"
    },
    {
      "inputs": [
        {
          "internalType": "address",
          "name": "from",
          "type": "address"
        },
        {
          "internalType": "address",
          "name": "to",
          "type": "address"
        },
        {
          "internalType": "uint256",
          "name": "tokenId",
          "type": "uint256"
        }
      ],
      "name": "safeTransferFrom",
      "outputs": [],
      "stateMutability": "nonpayable",
      "type": "function"
    },
    {
      "inputs": [
        {
          "internalType": "address",
          "name": "from",
          "type": "address"
        },
        {
          "internalType": "address",
          "name": "to",
          "type": "address"
        },
        {
          "internalType": "uint256",
          "name": "tokenId",
          "type": "uint256"
        },
        {
          "internalType": "bytes",
          "name": "data",
          "type": "bytes"
        }
      ],
      "name": "safeTransferFrom",
      "outputs": [],
      "stateMutability": "nonpayable",
      "type": "function"
    },
    {
      "inputs": [
        {
          "internalType": "address",
          "name": "operator",
          "type": "address"
        },
        {
          "internalType": "bool",
          "name": "approved",
          "type": "bool"
        }
      ],
      "name": "setApprovalForAll",
      "outputs": [],
      "stateMutability": "nonpayable",
      "type": "function"
    },
    {
      "inputs": [
        {
          "internalType": "bytes4",
          "name": "interfaceId",
          "type": "bytes4"
        }
      ],
      "name": "supportsInterface",
      "outputs": [
        {
          "internalType": "bool",
          "name": "",
          "type": "bool"
        }
      ],
      "stateMutability": "view",
      "type": "function"
    },
    {
      "inputs": [],
      "name": "symbol",
      "outputs": [
        {
          "internalType": "string",
          "name": "",
          "type": "string"
        }
      ],
      "stateMutability": "view",
      "type": "function"
    },
    {
      "inputs": [
        {
          "internalType": "uint256",
          "name": "index",
          "type": "uint256"
        }
      ],
      "name": "tokenByIndex",
      "outputs": [
        {
          "internalType": "uint256",
          "name": "",
          "type": "uint256"
        }
      ],
      "stateMutability": "view",
      "type": "function"
    },
    {
      "inputs": [
        {
          "internalType": "address",
          "name": "owner",
          "type": "address"
        },
        {
          "internalType": "uint256",
          "name": "index",
          "type": "uint256"
        }
      ],
      "name": "tokenOfOwnerByIndex",
      "outputs": [
        {
          "internalType": "uint256",
          "name": "",
          "type": "uint256"
        }
      ],
      "stateMutability": "view",
      "type": "function"
    },
    {
      "inputs": [
        {
          "internalType": "uint256",
          "name": "tokenId",
          "type": "uint256"
        }
      ],
      "name": "tokenURI",
      "outputs": [
        {
          "internalType": "string",
          "name": "",
          "type": "string"
        }
      ],
      "stateMutability": "view",
      "type": "function"
    },
    {
      "inputs": [],
      "name": "totalCriaturas",
      "outputs": [
        {
          "internalType": "uint256",
          "name": "",
          "type": "uint256"
        }
      ],
      "stateMutability": "view",
      "type": "function"
    },
    {
      "inputs": [],
      "name": "totalHabilidades",
      "outputs": [
        {
          "internalType": "uint256",
          "name": "",
          "type": "uint256"
        }
      ],
      "stateMutability": "view",
      "type": "function"
    },
    {
      "inputs": [],
      "name": "totalObjetos",
      "outputs": [
        {
          "internalType": "uint256",
          "name": "",
          "type": "uint256"
        }
      ],
      "stateMutability": "view",
      "type": "function"
    },
    {
      "inputs": [],
      "name": "totalSupply",
      "outputs": [
        {
          "internalType": "uint256",
          "name": "",
          "type": "uint256"
        }
      ],
      "stateMutability": "view",
      "type": "function"
    },
    {
      "inputs": [
        {
          "internalType": "address",
          "name": "from",
          "type": "address"
        },
        {
          "internalType": "address",
          "name": "to",
          "type": "address"
        },
        {
          "internalType": "uint256",
          "name": "tokenId",
          "type": "uint256"
        }
      ],
      "name": "transferFrom",
      "outputs": [],
      "stateMutability": "nonpayable",
      "type": "function"
    },
    {
      "inputs": [
        {
          "internalType": "address",
          "name": "newOwner",
          "type": "address"
        }
      ],
      "name": "transferOwnership",
      "outputs": [],
      "stateMutability": "nonpayable",
      "type": "function"
    },
    {
      "inputs": [],
      "name": "unpauseContract",
      "outputs": [],
      "stateMutability": "nonpayable",
      "type": "function"
    },
    {
      "inputs": [
        {
          "internalType": "address",
          "name": "_paymentToken",
          "type": "address"
        }
      ],
      "name": "updatePaymentToken",
      "outputs": [],
      "stateMutability": "nonpayable",
      "type": "function"
    },
    {
      "inputs": [],
      "name": "withdraw",
      "outputs": [],
      "stateMutability": "nonpayable",
      "type": "function"
    }
  ],
  "bytecode": "6080604052600a601255620151806013553480156200001d57600080fd5b5060405162003177380380620031778339810160408190526200004091620003aa565b6040518060400160405280600f81526020016e10dc9e5c1d1bd099585cdd1cd39195608a1b8152506040518060400160405280600581526020016410d093919560da1b815250816000908162000097919062000481565b506001620000a6828262000481565b505050620000c3620000bd6200011260201b60201c565b62000116565b600a805460ff60a01b19169055600b80546001600160a01b0319166001600160a01b0383161781556000600c819055600d819055600e556200010b9060159080606462000168565b5062000599565b3390565b600a80546001600160a01b038381166001600160a01b0319831681179093556040519116919082907f8be0079c531659141344cd1fd0a4f28419497f9722a3daafe3b4186f6b6457e090600090a35050565b6000600c5460036200017b919062000563565b90505b84600c546200018e919062000583565b6200019b90600362000563565b811015620001fa5760008181526011602052604081208390556016805460018101825591527fd833147d7dc355ba459fc788f669e58cfaf9dc25ddcd0702e87d69c7b512428901819055620001f260038262000583565b90506200017e565b506000600d5460036200020e919062000563565b6200021b90600162000583565b90505b83600d546200022e919062000583565b6200023b90600362000563565b6200024890600162000583565b811015620002a75760008181526011602052604081208390556017805460018101825591527fc624b66cc0138b8fabc209247f72d758e1cf3343756d543badbf24212bed8c15018190556200029f60038262000583565b90506200021e565b506000600e546003620002bb919062000563565b620002c890600262000583565b90505b82600e54620002db919062000583565b620002e890600362000563565b620002f590600262000583565b811015620003545760008181526011602052604081208390556018805460018101825591527fb13d2d76d1f4b7be834882e410b3e3a8afaf69f83600ae24db354391d2378d2e018190556200034c60038262000583565b9050620002cb565b5083600c600082825462000369919062000583565b9250508190555082600d600082825462000384919062000583565b9250508190555081600e60008282546200039f919062000583565b909155505050505050565b600060208284031215620003bd57600080fd5b81516001600160a01b0381168114620003d557600080fd5b9392505050565b634e487b7160e01b600052604160045260246000fd5b600181811c908216806200040757607f821691505b6020821081036200042857634e487b7160e01b600052602260045260246000fd5b50919050565b601f8211156200047c57600081815260208120601f850160051c81016020861015620004575750805b601f850160051c820191505b81811015620004785782815560010162000463565b5050505b505050565b81516001600160401b038111156200049d576200049d620003dc565b620004b581620004ae8454620003f2565b846200042e565b602080601f831160018114620004ed5760008415620004d45750858301515b600019600386901b1c1916600185901b17855562000478565b600085815260208120601f198616915b828110156200051e57888601518255948401946001909101908401620004fd565b50858210156200053d5787850151600019600388901b60f8161c191681555b5050505050600190811b01905550565b634e487b7160e01b600052601160045260246000fd5b80820281158282048414176200057d576200057d6200054d565b92915050565b808201808211156200057d576200057d6200054d565b612bce80620005a96000396000f3fe608060405234801561001057600080fd5b50600436106102695760003560e01c80634f6ccce711610151578063a23bd4f2116100c3578063c87b56dd11610087578063c87b56dd14610532578063da4fc3a414610545578063e985e9c514610554578063f2fde38b14610590578063fb9dd96e146105a3578063ff552e44146105b357600080fd5b8063a23bd4f2146104e6578063b33712c514610506578063b51cff381461050e578063b88d4fde14610516578063bc86206f1461052957600080fd5b8063715018a611610115578063715018a61461045e5780638da5cb5b146104665780638dc107681461047757806395d89b41146104b8578063a0a0e5dd146104c0578063a22cb465146104d357600080fd5b80634f6ccce71461040a5780635c975abb1461041d5780636352211e1461042f57806365a8e6a31461044257806370a082311461044b57600080fd5b80632b70b96d116101ea5780633ccfd60b116101ae5780633ccfd60b146103b857806342842e0e146103c057806342966c68146103d3578063439766ce146103e65780634c662f28146103ee5780634ccf1b34146103f757600080fd5b80632b70b96d1461034c5780632d9e882e1461036c5780632f745c591461037f5780633013ce29146103925780633a64bb76146103a557600080fd5b806318160ddd1161023157806318160ddd146103025780631f2525b21461030a57806323b872dd1461031d5780632a9c72c8146103305780632b51a37c1461033957600080fd5b806301ffc9a71461026e57806306fdde0314610296578063081812fc146102ab578063095ea7b3146102d657806315d0b529146102eb575b600080fd5b61028161027c3660046125ed565b6105bb565b60405190151581526020015b60405180910390f35b61029e6105e6565b60405161028d919061265a565b6102be6102b936600461266d565b610678565b6040516001600160a01b03909116815260200161028d565b6102e96102e43660046126a2565b61069f565b005b6102f4600c5481565b60405190815260200161028d565b6008546102f4565b6102e96103183660046126cc565b6107b9565b6102e961032b3660046126ef565b6108f9565b6102f460125481565b6102f461034736600461266d565b61092a565b6102f461035a36600461266d565b60009081526011602052604090205490565b6102f461037a36600461266d565b61094b565b6102f461038d3660046126a2565b61095b565b600b546102be906001600160a01b031681565b6102e96103b336600461272b565b6109f1565b6102e9610a0b565b6102e96103ce3660046126ef565b610ab8565b6102e96103e136600461266d565b610ad3565b6102e9610d7f565b6102f460135481565b6102e961040536600461275d565b610d91565b6102f461041836600461266d565b610dbb565b600a54600160a01b900460ff16610281565b6102be61043d36600461266d565b610e4e565b6102f4600e5481565b6102f461045936600461275d565b610eae565b6102e9610f34565b600a546001600160a01b03166102be565b6104a161048536600461266d565b6010602052600090815260409020805460019091015460ff1682565b6040805192835260ff90911660208301520161028d565b61029e610f46565b6102f46104ce36600461266d565b610f55565b6102e96104e1366004612786565b610f65565b6102f46104f436600461266d565b60116020526000908152604090205481565b6102e9610f70565b6102f4601481565b6102e96105243660046127d3565b610f80565b6102f4600d5481565b61029e61054036600461266d565b610fb2565b6102f4676124fee993bc000081565b6102816105623660046128af565b6001600160a01b03918216600090815260056020908152604080832093909416825291909152205460ff1690565b6102e961059e36600461275d565b611026565b6102f46802b5e3af16b188000081565b6102f4600581565b60006001600160e01b0319821663780e9d6360e01b14806105e057506105e08261109f565b92915050565b6060600080546105f5906128e2565b80601f0160208091040260200160405190810160405280929190818152602001828054610621906128e2565b801561066e5780601f106106435761010080835404028352916020019161066e565b820191906000526020600020905b81548152906001019060200180831161065157829003601f168201915b5050505050905090565b6000610683826110ef565b506000908152600460205260409020546001600160a01b031690565b60006106aa82610e4e565b9050806001600160a01b0316836001600160a01b03160361071c5760405162461bcd60e51b815260206004820152602160248201527f4552433732313a20617070726f76616c20746f2063757272656e74206f776e656044820152603960f91b60648201526084015b60405180910390fd5b336001600160a01b038216148061073857506107388133610562565b6107aa5760405162461bcd60e51b815260206004820152603d60248201527f4552433732313a20617070726f76652063616c6c6572206973206e6f7420746f60448201527f6b656e206f776e6572206f7220617070726f76656420666f7220616c6c0000006064820152608401610713565b6107b4838361114e565b505050565b6107c16111bc565b60018160ff16101580156107d9575060038160ff1611155b6108195760405162461bcd60e51b8152602060048201526011602482015270496e76616c69642063617264207479706560781b6044820152606401610713565b60005b60058160ff161015610870576000610835836005611209565b905061085d33828460ff16815181106108505761085061291c565b6020026020010151611353565b508061086881612948565b91505061081c565b50600b546040516323b872dd60e01b81523360048201523060248201526802b5e3af16b188000060448201526001600160a01b03909116906323b872dd906064015b6020604051808303816000875af11580156108d1573d6000803e3d6000fd5b505050506040513d601f19601f820116820180604052508101906108f59190612967565b5050565b61090333826116d9565b61091f5760405162461bcd60e51b815260040161071390612984565b6107b4838383611758565b6018818154811061093a57600080fd5b600091825260209091200154905081565b6016818154811061093a57600080fd5b600061096683610eae565b82106109c85760405162461bcd60e51b815260206004820152602b60248201527f455243373231456e756d657261626c653a206f776e657220696e646578206f7560448201526a74206f6620626f756e647360a81b6064820152608401610713565b506001600160a01b03919091166000908152600660209081526040808320938352929052205490565b6109f96118c9565b610a0584848484611923565b50505050565b610a136118c9565b600b546040516370a0823160e01b81523060048201526000916001600160a01b0316906370a0823190602401602060405180830381865afa158015610a5c573d6000803e3d6000fd5b505050506040513d601f19601f82011682018060405250810190610a8091906129d1565b600b5460405163a9059cbb60e01b8152336004820152602481018390529192506001600160a01b03169063a9059cbb906044016108b2565b6107b483838360405180602001604052806000815250610f80565b33610add82610e4e565b6001600160a01b031614610b3e5760405162461bcd60e51b815260206004820152602260248201527f4f6e6c7920746865206f776e65722063616e206275726e207468697320746f6b60448201526132b760f11b6064820152608401610713565b600b546040516370a0823160e01b8152306004820152676124fee993bc0000916001600160a01b0316906370a0823190602401602060405180830381865afa158015610b8e573d6000803e3d6000fd5b505050506040513d601f19601f82011682018060405250810190610bb291906129d1565b1015610c185760405162461bcd60e51b815260206004820152602f60248201527f436f6e74726163742068617320696e73756666696369656e742062616c616e6360448201526e19481d1bc81c185e481c995dd85c99608a1b6064820152608401610713565b33600090815260156020526040902054601354429190610c3882846129ea565b1115610c5e57336000908152601460209081526040808320839055601590915290208290555b6012543360009081526014602052604090205410610ccd5760405162461bcd60e51b815260206004820152602660248201527f4275726e206c696d6974207265616368656420666f7220746869732074696d65604482015265206672616d6560d01b6064820152608401610713565b610cd683611b39565b336000908152601460205260408120805460019290610cf69084906129fd565b9091555050600b5460405163a9059cbb60e01b8152336004820152676124fee993bc000060248201819052916001600160a01b03169063a9059cbb906044016020604051808303816000875af1158015610d54573d6000803e3d6000fd5b505050506040513d601f19601f82011682018060405250810190610d789190612967565b5050505050565b610d876118c9565b610d8f611bdc565b565b610d996118c9565b600b80546001600160a01b0319166001600160a01b0392909216919091179055565b6000610dc660085490565b8210610e295760405162461bcd60e51b815260206004820152602c60248201527f455243373231456e756d657261626c653a20676c6f62616c20696e646578206f60448201526b7574206f6620626f756e647360a01b6064820152608401610713565b60088281548110610e3c57610e3c61291c565b90600052602060002001549050919050565b6000818152600260205260408120546001600160a01b0316806105e05760405162461bcd60e51b8152602060048201526018602482015277115490cdcc8c4e881a5b9d985b1a59081d1bdad95b88125160421b6044820152606401610713565b60006001600160a01b038216610f185760405162461bcd60e51b815260206004820152602960248201527f4552433732313a2061646472657373207a65726f206973206e6f7420612076616044820152683634b21037bbb732b960b91b6064820152608401610713565b506001600160a01b031660009081526003602052604090205490565b610f3c6118c9565b610d8f6000611c3c565b6060600180546105f5906128e2565b6017818154811061093a57600080fd5b6108f5338383611c8e565b610f786118c9565b610d8f611d5c565b610f8a33836116d9565b610fa65760405162461bcd60e51b815260040161071390612984565b610a0584848484611d98565b6060610fbd826110ef565b6000610fd460408051602081019091526000815290565b90506000815111610ff4576040518060200160405280600081525061101f565b80610ffe84611dcb565b60405160200161100f929190612a10565b6040516020818303038152906040525b9392505050565b61102e6118c9565b6001600160a01b0381166110935760405162461bcd60e51b815260206004820152602660248201527f4f776e61626c653a206e6577206f776e657220697320746865207a65726f206160448201526564647265737360d01b6064820152608401610713565b61109c81611c3c565b50565b60006001600160e01b031982166380ac58cd60e01b14806110d057506001600160e01b03198216635b5e139f60e01b145b806105e057506301ffc9a760e01b6001600160e01b03198316146105e0565b6000818152600260205260409020546001600160a01b031661109c5760405162461bcd60e51b8152602060048201526018602482015277115490cdcc8c4e881a5b9d985b1a59081d1bdad95b88125160421b6044820152606401610713565b600081815260046020526040902080546001600160a01b0319166001600160a01b038416908117909155819061118382610e4e565b6001600160a01b03167f8c5be1e5ebec7d5bd14f71427d1e84f3dd0314c0f7b2291e5b200ac8c7c3b92560405160405180910390a45050565b600a54600160a01b900460ff1615610d8f5760405162461bcd60e51b815260206004820152601060248201526f14185d5cd8589b194e881c185d5cd95960821b6044820152606401610713565b606060008267ffffffffffffffff811115611226576112266127bd565b60405190808252806020026020018201604052801561124f578160200160208202803683370190505b50905060005b8381101561134b578460ff166001036112bb5760165460009061127790611e5e565b90506016818154811061128c5761128c61291c565b90600052602060002001548383815181106112a9576112a961291c565b60200260200101818152505050611339565b8460ff166002036112ea576017546000906112d590611e5e565b90506017818154811061128c5761128c61291c565b6018546000906112f990611e5e565b90506018818154811061130e5761130e61291c565b906000526020600020015483838151811061132b5761132b61291c565b602002602001018181525050505b8061134381612a3f565b915050611255565b509392505050565b606461135e600f5490565b1061139b5760405162461bcd60e51b815260206004820152600d60248201526c139bc818d85c991cc81b19599d609a1b6044820152606401610713565b6000818152601160205260409020546113f65760405162461bcd60e51b815260206004820152601b60248201527f4e6f2073746f636b206c65667420666f722074686973206361726400000000006044820152606401610713565b6000611400611ec8565b9050611410600f80546001019055565b600061141b600f5490565b60408051808201825285815260ff85811660208084019182526000868152601082528581209451855591516001948501805460ff191691909416179092558781526011909152918220805493945090929091906114799084906129ea565b909155505060008381526011602052604081205490036116cf5761149e600384612a58565b6000036115645760005b60165481101561155e5783601682815481106114c6576114c661291c565b90600052602060002001540361154c57601680546114e6906001906129ea565b815481106114f6576114f661291c565b9060005260206000200154601682815481106115145761151461291c565b600091825260209091200155601680548061153157611531612a7a565b6001900381819060005260206000200160009055905561155e565b8061155681612a3f565b9150506114a8565b506116cf565b61156f600384612a58565b6001036116145760005b60175481101561155e5783601782815481106115975761159761291c565b90600052602060002001540361160257601780546115b7906001906129ea565b815481106115c7576115c761291c565b9060005260206000200154601782815481106115e5576115e561291c565b600091825260209091200155601780548061153157611531612a7a565b8061160c81612a3f565b915050611579565b60005b6018548110156116cd5783601882815481106116355761163561291c565b9060005260206000200154036116bb5760188054611655906001906129ea565b815481106116655761166561291c565b9060005260206000200154601882815481106116835761168361291c565b60009182526020909120015560188054806116a0576116a0612a7a565b600190038181906000526020600020016000905590556116cd565b806116c581612a3f565b915050611617565b505b610a058482611f0b565b6000806116e583610e4e565b9050806001600160a01b0316846001600160a01b0316148061172c57506001600160a01b0380821660009081526005602090815260408083209388168352929052205460ff165b806117505750836001600160a01b031661174584610678565b6001600160a01b0316145b949350505050565b826001600160a01b031661176b82610e4e565b6001600160a01b0316146117915760405162461bcd60e51b815260040161071390612a90565b6001600160a01b0382166117f35760405162461bcd60e51b8152602060048201526024808201527f4552433732313a207472616e7366657220746f20746865207a65726f206164646044820152637265737360e01b6064820152608401610713565b6118008383836001611f25565b826001600160a01b031661181382610e4e565b6001600160a01b0316146118395760405162461bcd60e51b815260040161071390612a90565b600081815260046020908152604080832080546001600160a01b03199081169091556001600160a01b0387811680865260038552838620805460001901905590871680865283862080546001019055868652600290945282852080549092168417909155905184937fddf252ad1be2c89b69c2b068fc378daa952ba7f163c4a11628f55a4df523b3ef91a4505050565b600a546001600160a01b03163314610d8f5760405162461bcd60e51b815260206004820181905260248201527f4f776e61626c653a2063616c6c6572206973206e6f7420746865206f776e65726044820152606401610713565b6000600c5460036119349190612ad5565b90505b84600c5461194591906129fd565b611950906003612ad5565b8110156119ab5760008181526011602052604081208390556016805460018101825591527fd833147d7dc355ba459fc788f669e58cfaf9dc25ddcd0702e87d69c7b5124289018190556119a46003826129fd565b9050611937565b506000600d5460036119bd9190612ad5565b6119c89060016129fd565b90505b83600d546119d991906129fd565b6119e4906003612ad5565b6119ef9060016129fd565b811015611a4a5760008181526011602052604081208390556017805460018101825591527fc624b66cc0138b8fabc209247f72d758e1cf3343756d543badbf24212bed8c1501819055611a436003826129fd565b90506119cb565b506000600e546003611a5c9190612ad5565b611a679060026129fd565b90505b82600e54611a7891906129fd565b611a83906003612ad5565b611a8e9060026129fd565b811015611ae95760008181526011602052604081208390556018805460018101825591527fb13d2d76d1f4b7be834882e410b3e3a8afaf69f83600ae24db354391d2378d2e01819055611ae26003826129fd565b9050611a6a565b5083600c6000828254611afc91906129fd565b9250508190555082600d6000828254611b1591906129fd565b9250508190555081600e6000828254611b2e91906129fd565b909155505050505050565b6000611b4482610e4e565b9050611b54816000846001611f25565b611b5d82610e4e565b600083815260046020908152604080832080546001600160a01b03199081169091556001600160a01b0385168085526003845282852080546000190190558785526002909352818420805490911690555192935084927fddf252ad1be2c89b69c2b068fc378daa952ba7f163c4a11628f55a4df523b3ef908390a45050565b611be46111bc565b600a805460ff60a01b1916600160a01b1790557f62e78cea01bee320cd4e420270b5ea74000d11b0c9f74754ebdbfc544b05a258611c1f3390565b6040516001600160a01b03909116815260200160405180910390a1565b600a80546001600160a01b038381166001600160a01b0319831681179093556040519116919082907f8be0079c531659141344cd1fd0a4f28419497f9722a3daafe3b4186f6b6457e090600090a35050565b816001600160a01b0316836001600160a01b031603611cef5760405162461bcd60e51b815260206004820152601960248201527f4552433732313a20617070726f766520746f2063616c6c6572000000000000006044820152606401610713565b6001600160a01b03838116600081815260056020908152604080832094871680845294825291829020805460ff191686151590811790915591519182527f17307eab39ab6107e8899845ad3d59bd9653f200f220920489ca2b5937696c31910160405180910390a3505050565b611d64612052565b600a805460ff60a01b191690557f5db9ee0a495bf2e6ff9c91a7834c1ba4fdd244a5e8aa4e537bd38aeae4b073aa33611c1f565b611da3848484611758565b611daf848484846120a2565b610a055760405162461bcd60e51b815260040161071390612aec565b60606000611dd8836121a3565b600101905060008167ffffffffffffffff811115611df857611df86127bd565b6040519080825280601f01601f191660200182016040528015611e22576020820181803683370190505b5090508181016020015b600019016f181899199a1a9b1b9c1cb0b131b232b360811b600a86061a8153600a8504945084611e2c57509392505050565b60008042611e6d6001436129ea565b4033604051602001611ea493929190928352602083019190915260601b6bffffffffffffffffffffffff1916604082015260540190565b60408051601f198184030181529190528051602090910120905061101f8382612a58565b600080611ed56064611e5e565b90506005811015611ee857600391505090565b611ef4601460056129fd565b811015611f0357600291505090565b600191505090565b6108f582826040518060200160405280600081525061227b565b6001811115611f945760405162461bcd60e51b815260206004820152603560248201527f455243373231456e756d657261626c653a20636f6e7365637574697665207472604482015274185b9cd9995c9cc81b9bdd081cdd5c1c1bdc9d1959605a1b6064820152608401610713565b816001600160a01b038516611ff057611feb81600880546000838152600960205260408120829055600182018355919091527ff3f7a9fe364faab93b216da50a3214154f22a0a2b415b23a84c8169e8b636ee30155565b612013565b836001600160a01b0316856001600160a01b0316146120135761201385826122ae565b6001600160a01b03841661202f5761202a8161234b565b610d78565b846001600160a01b0316846001600160a01b031614610d7857610d7884826123fa565b600a54600160a01b900460ff16610d8f5760405162461bcd60e51b815260206004820152601460248201527314185d5cd8589b194e881b9bdd081c185d5cd95960621b6044820152606401610713565b60006001600160a01b0384163b1561219857604051630a85bd0160e11b81526001600160a01b0385169063150b7a02906120e6903390899088908890600401612b3e565b6020604051808303816000875af1925050508015612121575060408051601f3d908101601f1916820190925261211e91810190612b7b565b60015b61217e573d80801561214f576040519150601f19603f3d011682016040523d82523d6000602084013e612154565b606091505b5080516000036121765760405162461bcd60e51b815260040161071390612aec565b805181602001fd5b6001600160e01b031916630a85bd0160e11b149050611750565b506001949350505050565b60008072184f03e93ff9f4daa797ed6e38ed64bf6a1f0160401b83106121e25772184f03e93ff9f4daa797ed6e38ed64bf6a1f0160401b830492506040015b6d04ee2d6d415b85acef8100000000831061220e576d04ee2d6d415b85acef8100000000830492506020015b662386f26fc10000831061222c57662386f26fc10000830492506010015b6305f5e1008310612244576305f5e100830492506008015b612710831061225857612710830492506004015b6064831061226a576064830492506002015b600a83106105e05760010192915050565b612285838361243e565b61229260008484846120a2565b6107b45760405162461bcd60e51b815260040161071390612aec565b600060016122bb84610eae565b6122c591906129ea565b600083815260076020526040902054909150808214612318576001600160a01b03841660009081526006602090815260408083208584528252808320548484528184208190558352600790915290208190555b5060009182526007602090815260408084208490556001600160a01b039094168352600681528383209183525290812055565b60085460009061235d906001906129ea565b600083815260096020526040812054600880549394509092849081106123855761238561291c565b9060005260206000200154905080600883815481106123a6576123a661291c565b60009182526020808320909101929092558281526009909152604080822084905585825281205560088054806123de576123de612a7a565b6001900381819060005260206000200160009055905550505050565b600061240583610eae565b6001600160a01b039093166000908152600660209081526040808320868452825280832085905593825260079052919091209190915550565b6001600160a01b0382166124945760405162461bcd60e51b815260206004820181905260248201527f4552433732313a206d696e7420746f20746865207a65726f20616464726573736044820152606401610713565b6000818152600260205260409020546001600160a01b0316156124f95760405162461bcd60e51b815260206004820152601c60248201527f4552433732313a20746f6b656e20616c7265616479206d696e746564000000006044820152606401610713565b612507600083836001611f25565b6000818152600260205260409020546001600160a01b03161561256c5760405162461bcd60e51b815260206004820152601c60248201527f4552433732313a20746f6b656e20616c7265616479206d696e746564000000006044820152606401610713565b6001600160a01b038216600081815260036020908152604080832080546001019055848352600290915280822080546001600160a01b0319168417905551839291907fddf252ad1be2c89b69c2b068fc378daa952ba7f163c4a11628f55a4df523b3ef908290a45050565b6001600160e01b03198116811461109c57600080fd5b6000602082840312156125ff57600080fd5b813561101f816125d7565b60005b8381101561262557818101518382015260200161260d565b50506000910152565b6000815180845261264681602086016020860161260a565b601f01601f19169290920160200192915050565b60208152600061101f602083018461262e565b60006020828403121561267f57600080fd5b5035919050565b80356001600160a01b038116811461269d57600080fd5b919050565b600080604083850312156126b557600080fd5b6126be83612686565b946020939093013593505050565b6000602082840312156126de57600080fd5b813560ff8116811461101f57600080fd5b60008060006060848603121561270457600080fd5b61270d84612686565b925061271b60208501612686565b9150604084013590509250925092565b6000806000806080858703121561274157600080fd5b5050823594602084013594506040840135936060013592509050565b60006020828403121561276f57600080fd5b61101f82612686565b801515811461109c57600080fd5b6000806040838503121561279957600080fd5b6127a283612686565b915060208301356127b281612778565b809150509250929050565b634e487b7160e01b600052604160045260246000fd5b600080600080608085870312156127e957600080fd5b6127f285612686565b935061280060208601612686565b925060408501359150606085013567ffffffffffffffff8082111561282457600080fd5b818701915087601f83011261283857600080fd5b81358181111561284a5761284a6127bd565b604051601f8201601f19908116603f01168101908382118183101715612872576128726127bd565b816040528281528a602084870101111561288b57600080fd5b82602086016020830137600060208483010152809550505050505092959194509250565b600080604083850312156128c257600080fd5b6128cb83612686565b91506128d960208401612686565b90509250929050565b600181811c908216806128f657607f821691505b60208210810361291657634e487b7160e01b600052602260045260246000fd5b50919050565b634e487b7160e01b600052603260045260246000fd5b634e487b7160e01b600052601160045260246000fd5b600060ff821660ff810361295e5761295e612932565b60010192915050565b60006020828403121561297957600080fd5b815161101f81612778565b6020808252602d908201527f4552433732313a2063616c6c6572206973206e6f7420746f6b656e206f776e6560408201526c1c881bdc88185c1c1c9bdd9959609a1b606082015260800190565b6000602082840312156129e357600080fd5b5051919050565b818103818111156105e0576105e0612932565b808201808211156105e0576105e0612932565b60008351612a2281846020880161260a565b835190830190612a3681836020880161260a565b01949350505050565b600060018201612a5157612a51612932565b5060010190565b600082612a7557634e487b7160e01b600052601260045260246000fd5b500690565b634e487b7160e01b600052603160045260246000fd5b60208082526025908201527f4552433732313a207472616e736665722066726f6d20696e636f72726563742060408201526437bbb732b960d91b606082015260800190565b80820281158282048414176105e0576105e0612932565b60208082526032908201527f4552433732313a207472616e7366657220746f206e6f6e20455243373231526560408201527131b2b4bb32b91034b6b83632b6b2b73a32b960711b606082015260800190565b6001600160a01b0385811682528416602082015260408101839052608060608201819052600090612b719083018461262e565b9695505050505050565b600060208284031215612b8d57600080fd5b815161101f816125d756fea2646970667358221220aa6f8a8eb49bebe55c3e42692cebd4a41ed53d13e104b5067fd3378ddd9664e164736f6c63430008130033",
  "bytecodeSha1": "3da537f2a49863a35df2dc93d091319fa6736e32",
  "compiler": {
    "evm_version": "istanbul",
    "optimizer": {
      "enabled": true,
      "runs": 200
    },
    "version": "0.8.19+commit.7dd6d404"
  },
  "contractName": "CryptoBeastsNFT",
  "language": "Solidity",
  "natspec": {
    "kind": "dev",
    "methods": {
      "approve(address,uint256)": {
        "details": "See {IERC721-approve}."
      },
      "balanceOf(address)": {
        "details": "See {IERC721-balanceOf}."
      },
      "getApproved(uint256)": {
        "details": "See {IERC721-getApproved}."
      },
      "isApprovedForAll(address,address)": {
        "details": "See {IERC721-isApprovedForAll}."
      },
      "name()": {
        "details": "See {IERC721Metadata-name}."
      },
      "owner()": {
        "details": "Returns the address of the current owner."
      },
      "ownerOf(uint256)": {
        "details": "See {IERC721-ownerOf}."
      },
      "paused()": {
        "details": "Returns true if the contract is paused, and false otherwise."
      },
      "renounceOwnership()": {
        "details": "Leaves the contract without owner. It will not be possible to call `onlyOwner` functions anymore. Can only be called by the current owner. NOTE: Renouncing ownership will leave the contract without an owner, thereby removing any functionality that is only available to the owner."
      },
      "safeTransferFrom(address,address,uint256)": {
        "details": "See {IERC721-safeTransferFrom}."
      },
      "safeTransferFrom(address,address,uint256,bytes)": {
        "details": "See {IERC721-safeTransferFrom}."
      },
      "setApprovalForAll(address,bool)": {
        "details": "See {IERC721-setApprovalForAll}."
      },
      "supportsInterface(bytes4)": {
        "details": "See {IERC165-supportsInterface}."
      },
      "symbol()": {
        "details": "See {IERC721Metadata-symbol}."
      },
      "tokenByIndex(uint256)": {
        "details": "See {IERC721Enumerable-tokenByIndex}."
      },
      "tokenOfOwnerByIndex(address,uint256)": {
        "details": "See {IERC721Enumerable-tokenOfOwnerByIndex}."
      },
      "tokenURI(uint256)": {
        "details": "See {IERC721Metadata-tokenURI}."
      },
      "totalSupply()": {
        "details": "See {IERC721Enumerable-totalSupply}."
      },
      "transferFrom(address,address,uint256)": {
        "details": "See {IERC721-transferFrom}."
      },
      "transferOwnership(address)": {
        "details": "Transfers ownership of the contract to a new account (`newOwner`). Can only be called by the current owner."
      }
    },
    "version": 1
  },
  "opcodes": "PUSH1 0x80 PUSH1 0x40 MSTORE CALLVALUE DUP1 ISZERO PUSH2 0x10 JUMPI PUSH1 0x0 DUP1 REVERT JUMPDEST POP PUSH1 0x4 CALLDATASIZE LT PUSH2 0x269 JUMPI PUSH1 0x0 CALLDATALOAD PUSH1 0xE0 SHR DUP1 PUSH4 0x4F6CCCE7 GT PUSH2 0x151 JUMPI DUP1 PUSH4 0xA23BD4F2 GT PUSH2 0xC3 JUMPI DUP1 PUSH4 0xC87B56DD GT PUSH2 0x87 JUMPI DUP1 PUSH4 0xC87B56DD EQ PUSH2 0x532 JUMPI DUP1 PUSH4 0xDA4FC3A4 EQ PUSH2 0x545 JUMPI DUP1 PUSH4 0xE985E9C5 EQ PUSH2 0x554 JUMPI DUP1 PUSH4 0xF2FDE38B EQ PUSH2 0x590 JUMPI DUP1 PUSH4 0xFB9DD96E EQ PUSH2 0x5A3 JUMPI DUP1 PUSH4 0xFF552E44 EQ PUSH2 0x5B3 JUMPI PUSH1 0x0 DUP1 REVERT JUMPDEST DUP1 PUSH4 0xA23BD4F2 EQ PUSH2 0x4E6 JUMPI DUP1 PUSH4 0xB33712C5 EQ PUSH2 0x506 JUMPI DUP1 PUSH4 0xB51CFF38 EQ PUSH2 0x50E JUMPI DUP1 PUSH4 0xB88D4FDE EQ PUSH2 0x516 JUMPI DUP1 PUSH4 0xBC86206F EQ PUSH2 0x529 JUMPI PUSH1 0x0 DUP1 REVERT JUMPDEST DUP1 PUSH4 0x715018A6 GT PUSH2 0x115 JUMPI DUP1 PUSH4 0x715018A6 EQ PUSH2 0x45E JUMPI DUP1 PUSH4 0x8DA5CB5B EQ PUSH2 0x466 JUMPI DUP1 PUSH4 0x8DC10768 EQ PUSH2 0x477 JUMPI DUP1 PUSH4 0x95D89B41 EQ PUSH2 0x4B8 JUMPI DUP1 PUSH4 0xA0A0E5DD EQ PUSH2 0x4C0 JUMPI DUP1 PUSH4 0xA22CB465 EQ PUSH2 0x4D3 JUMPI PUSH1 0x0 DUP1 REVERT JUMPDEST DUP1 PUSH4 0x4F6CCCE7 EQ PUSH2 0x40A JUMPI DUP1 PUSH4 0x5C975ABB EQ PUSH2 0x41D JUMPI DUP1 PUSH4 0x6352211E EQ PUSH2 0x42F JUMPI DUP1 PUSH4 0x65A8E6A3 EQ PUSH2 0x442 JUMPI DUP1 PUSH4 0x70A08231 EQ PUSH2 0x44B JUMPI PUSH1 0x0 DUP1 REVERT JUMPDEST DUP1 PUSH4 0x2B70B96D GT PUSH2 0x1EA JUMPI DUP1 PUSH4 0x3CCFD60B GT PUSH2 0x1AE JUMPI DUP1 PUSH4 0x3CCFD60B EQ PUSH2 0x3B8 JUMPI DUP1 PUSH4 0x42842E0E EQ PUSH2 0x3C0 JUMPI DUP1 PUSH4 0x42966C68 EQ PUSH2 0x3D3 JUMPI DUP1 PUSH4 0x439766CE EQ PUSH2 0x3E6 JUMPI DUP1 PUSH4 0x4C662F28 EQ PUSH2 0x3EE JUMPI DUP1 PUSH4 0x4CCF1B34 EQ PUSH2 0x3F7 JUMPI PUSH1 0x0 DUP1 REVERT JUMPDEST DUP1 PUSH4 0x2B70B96D EQ PUSH2 0x34C JUMPI DUP1 PUSH4 0x2D9E882E EQ PUSH2 0x36C JUMPI DUP1 PUSH4 0x2F745C59 EQ PUSH2 0x37F JUMPI DUP1 PUSH4 0x3013CE29 EQ PUSH2 0x392 JUMPI DUP1 PUSH4 0x3A64BB76 EQ PUSH2 0x3A5 JUMPI PUSH1 0x0 DUP1 REVERT JUMPDEST DUP1 PUSH4 0x18160DDD GT PUSH2 0x231 JUMPI DUP1 PUSH4 0x18160DDD EQ PUSH2 0x302 JUMPI DUP1 PUSH4 0x1F2525B2 EQ PUSH2 0x30A JUMPI DUP1 PUSH4 0x23B872DD EQ PUSH2 0x31D JUMPI DUP1 PUSH4 0x2A9C72C8 EQ PUSH2 0x330 JUMPI DUP1 PUSH4 0x2B51A37C EQ PUSH2 0x339 JUMPI PUSH1 0x0 DUP1 REVERT JUMPDEST DUP1 PUSH4 0x1FFC9A7 EQ PUSH2 0x26E JUMPI DUP1 PUSH4 0x6FDDE03 EQ PUSH2 0x296 JUMPI DUP1 PUSH4 0x81812FC EQ PUSH2 0x2AB JUMPI DUP1 PUSH4 0x95EA7B3 EQ PUSH2 0x2D6 JUMPI DUP1 PUSH4 0x15D0B529 EQ PUSH2 0x2EB JUMPI JUMPDEST PUSH1 0x0 DUP1 REVERT JUMPDEST PUSH2 0x281 PUSH2 0x27C CALLDATASIZE PUSH1 0x4 PUSH2 0x25ED JUMP JUMPDEST PUSH2 0x5BB JUMP JUMPDEST PUSH1 0x40 MLOAD SWAP1 ISZERO ISZERO DUP2 MSTORE PUSH1 0x20 ADD JUMPDEST PUSH1 0x40 MLOAD DUP1 SWAP2 SUB SWAP1 RETURN JUMPDEST PUSH2 0x29E PUSH2 0x5E6 JUMP JUMPDEST PUSH1 0x40 MLOAD PUSH2 0x28D SWAP2 SWAP1 PUSH2 0x265A JUMP JUMPDEST PUSH2 0x2BE PUSH2 0x2B9 CALLDATASIZE PUSH1 0x4 PUSH2 0x266D JUMP JUMPDEST PUSH2 0x678 JUMP JUMPDEST PUSH1 0x40 MLOAD PUSH1 0x1 PUSH1 0x1 PUSH1 0xA0 SHL SUB SWAP1 SWAP2 AND DUP2 MSTORE PUSH1 0x20 ADD PUSH2 0x28D JUMP JUMPDEST PUSH2 0x2E9 PUSH2 0x2E4 CALLDATASIZE PUSH1 0x4 PUSH2 0x26A2 JUMP JUMPDEST PUSH2 0x69F JUMP JUMPDEST STOP JUMPDEST PUSH2 0x2F4 PUSH1 0xC SLOAD DUP2 JUMP JUMPDEST PUSH1 0x40 MLOAD SWAP1 DUP2 MSTORE PUSH1 0x20 ADD PUSH2 0x28D JUMP JUMPDEST PUSH1 0x8 SLOAD PUSH2 0x2F4 JUMP JUMPDEST PUSH2 0x2E9 PUSH2 0x318 CALLDATASIZE PUSH1 0x4 PUSH2 0x26CC JUMP JUMPDEST PUSH2 0x7B9 JUMP JUMPDEST PUSH2 0x2E9 PUSH2 0x32B CALLDATASIZE PUSH1 0x4 PUSH2 0x26EF JUMP JUMPDEST PUSH2 0x8F9 JUMP JUMPDEST PUSH2 0x2F4 PUSH1 0x12 SLOAD DUP2 JUMP JUMPDEST PUSH2 0x2F4 PUSH2 0x347 CALLDATASIZE PUSH1 0x4 PUSH2 0x266D JUMP JUMPDEST PUSH2 0x92A JUMP JUMPDEST PUSH2 0x2F4 PUSH2 0x35A CALLDATASIZE PUSH1 0x4 PUSH2 0x266D JUMP JUMPDEST PUSH1 0x0 SWAP1 DUP2 MSTORE PUSH1 0x11 PUSH1 0x20 MSTORE PUSH1 0x40 SWAP1 KECCAK256 SLOAD SWAP1 JUMP JUMPDEST PUSH2 0x2F4 PUSH2 0x37A CALLDATASIZE PUSH1 0x4 PUSH2 0x266D JUMP JUMPDEST PUSH2 0x94B JUMP JUMPDEST PUSH2 0x2F4 PUSH2 0x38D CALLDATASIZE PUSH1 0x4 PUSH2 0x26A2 JUMP JUMPDEST PUSH2 0x95B JUMP JUMPDEST PUSH1 0xB SLOAD PUSH2 0x2BE SWAP1 PUSH1 0x1 PUSH1 0x1 PUSH1 0xA0 SHL SUB AND DUP2 JUMP JUMPDEST PUSH2 0x2E9 PUSH2 0x3B3 CALLDATASIZE PUSH1 0x4 PUSH2 0x272B JUMP JUMPDEST PUSH2 0x9F1 JUMP JUMPDEST PUSH2 0x2E9 PUSH2 0xA0B JUMP JUMPDEST PUSH2 0x2E9 PUSH2 0x3CE CALLDATASIZE PUSH1 0x4 PUSH2 0x26EF JUMP JUMPDEST PUSH2 0xAB8 JUMP JUMPDEST PUSH2 0x2E9 PUSH2 0x3E1 CALLDATASIZE PUSH1 0x4 PUSH2 0x266D JUMP JUMPDEST PUSH2 0xAD3 JUMP JUMPDEST PUSH2 0x2E9 PUSH2 0xD7F JUMP JUMPDEST PUSH2 0x2F4 PUSH1 0x13 SLOAD DUP2 JUMP JUMPDEST PUSH2 0x2E9 PUSH2 0x405 CALLDATASIZE PUSH1 0x4 PUSH2 0x275D JUMP JUMPDEST PUSH2 0xD91 JUMP JUMPDEST PUSH2 0x2F4 PUSH2 0x418 CALLDATASIZE PUSH1 0x4 PUSH2 0x266D JUMP JUMPDEST PUSH2 0xDBB JUMP JUMPDEST PUSH1 0xA SLOAD PUSH1 0x1 PUSH1 0xA0 SHL SWAP1 DIV PUSH1 0xFF AND PUSH2 0x281 JUMP JUMPDEST PUSH2 0x2BE PUSH2 0x43D CALLDATASIZE PUSH1 0x4 PUSH2 0x266D JUMP JUMPDEST PUSH2 0xE4E JUMP JUMPDEST PUSH2 0x2F4 PUSH1 0xE SLOAD DUP2 JUMP JUMPDEST PUSH2 0x2F4 PUSH2 0x459 CALLDATASIZE PUSH1 0x4 PUSH2 0x275D JUMP JUMPDEST PUSH2 0xEAE JUMP JUMPDEST PUSH2 0x2E9 PUSH2 0xF34 JUMP JUMPDEST PUSH1 0xA SLOAD PUSH1 0x1 PUSH1 0x1 PUSH1 0xA0 SHL SUB AND PUSH2 0x2BE JUMP JUMPDEST PUSH2 0x4A1 PUSH2 0x485 CALLDATASIZE PUSH1 0x4 PUSH2 0x266D JUMP JUMPDEST PUSH1 0x10 PUSH1 0x20 MSTORE PUSH1 0x0 SWAP1 DUP2 MSTORE PUSH1 0x40 SWAP1 KECCAK256 DUP1 SLOAD PUSH1 0x1 SWAP1 SWAP2 ADD SLOAD PUSH1 0xFF AND DUP3 JUMP JUMPDEST PUSH1 0x40 DUP1 MLOAD SWAP3 DUP4 MSTORE PUSH1 0xFF SWAP1 SWAP2 AND PUSH1 0x20 DUP4 ADD MSTORE ADD PUSH2 0x28D JUMP JUMPDEST PUSH2 0x29E PUSH2 0xF46 JUMP JUMPDEST PUSH2 0x2F4 PUSH2 0x4CE CALLDATASIZE PUSH1 0x4 PUSH2 0x266D JUMP JUMPDEST PUSH2 0xF55 JUMP JUMPDEST PUSH2 0x2E9 PUSH2 0x4E1 CALLDATASIZE PUSH1 0x4 PUSH2 0x2786 JUMP JUMPDEST PUSH2 0xF65 JUMP JUMPDEST PUSH2 0x2F4 PUSH2 0x4F4 CALLDATASIZE PUSH1 0x4 PUSH2 0x266D JUMP JUMPDEST PUSH1 0x11 PUSH1 0x20 MSTORE PUSH1 0x0 SWAP1 DUP2 MSTORE PUSH1 0x40 SWAP1 KECCAK256 SLOAD DUP2 JUMP JUMPDEST PUSH2 0x2E9 PUSH2 0xF70 JUMP JUMPDEST PUSH2 0x2F4 PUSH1 0x14 DUP2 JUMP JUMPDEST PUSH2 0x2E9 PUSH2 0x524 CALLDATASIZE PUSH1 0x4 PUSH2 0x27D3 JUMP JUMPDEST PUSH2 0xF80 JUMP JUMPDEST PUSH2 0x2F4 PUSH1 0xD SLOAD DUP2 JUMP JUMPDEST PUSH2 0x29E PUSH2 0x540 CALLDATASIZE PUSH1 0x4 PUSH2 0x266D JUMP JUMPDEST PUSH2 0xFB2 JUMP JUMPDEST PUSH2 0x2F4 PUSH8 0x6124FEE993BC0000 DUP2 JUMP JUMPDEST PUSH2 0x281 PUSH2 0x562 CALLDATASIZE PUSH1 0x4 PUSH2 0x28AF JUMP JUMPDEST PUSH1 0x1 PUSH1 0x1 PUSH1 0xA0 SHL SUB SWAP2 DUP3 AND PUSH1 0x0 SWAP1 DUP2 MSTORE PUSH1 0x5 PUSH1 0x20 SWAP1 DUP2 MSTORE PUSH1 0x40 DUP1 DUP4 KECCAK256 SWAP4 SWAP1 SWAP5 AND DUP3 MSTORE SWAP2 SWAP1 SWAP2 MSTORE KECCAK256 SLOAD PUSH1 0xFF AND SWAP1 JUMP JUMPDEST PUSH2 0x2E9 PUSH2 0x59E CALLDATASIZE PUSH1 0x4 PUSH2 0x275D JUMP JUMPDEST PUSH2 0x1026 JUMP JUMPDEST PUSH2 0x2F4 PUSH9 0x2B5E3AF16B1880000 DUP2 JUMP JUMPDEST PUSH2 0x2F4 PUSH1 0x5 DUP2 JUMP JUMPDEST PUSH1 0x0 PUSH1 0x1 PUSH1 0x1 PUSH1 0xE0 SHL SUB NOT DUP3 AND PUSH4 0x780E9D63 PUSH1 0xE0 SHL EQ DUP1 PUSH2 0x5E0 JUMPI POP PUSH2 0x5E0 DUP3 PUSH2 0x109F JUMP JUMPDEST SWAP3 SWAP2 POP POP JUMP JUMPDEST PUSH1 0x60 PUSH1 0x0 DUP1 SLOAD PUSH2 0x5F5 SWAP1 PUSH2 0x28E2 JUMP JUMPDEST DUP1 PUSH1 0x1F ADD PUSH1 0x20 DUP1 SWAP2 DIV MUL PUSH1 0x20 ADD PUSH1 0x40 MLOAD SWAP1 DUP2 ADD PUSH1 0x40 MSTORE DUP1 SWAP3 SWAP2 SWAP1 DUP2 DUP2 MSTORE PUSH1 0x20 ADD DUP3 DUP1 SLOAD PUSH2 0x621 SWAP1 PUSH2 0x28E2 JUMP JUMPDEST DUP1 ISZERO PUSH2 0x66E JUMPI DUP1 PUSH1 0x1F LT PUSH2 0x643 JUMPI PUSH2 0x100 DUP1 DUP4 SLOAD DIV MUL DUP4 MSTORE SWAP2 PUSH1 0x20 ADD SWAP2 PUSH2 0x66E JUMP JUMPDEST DUP3 ADD SWAP2 SWAP1 PUSH1 0x0 MSTORE PUSH1 0x20 PUSH1 0x0 KECCAK256 SWAP1 JUMPDEST DUP2 SLOAD DUP2 MSTORE SWAP1 PUSH1 0x1 ADD SWAP1 PUSH1 0x20 ADD DUP1 DUP4 GT PUSH2 0x651 JUMPI DUP3 SWAP1 SUB PUSH1 0x1F AND DUP3 ADD SWAP2 JUMPDEST POP POP POP POP POP SWAP1 POP SWAP1 JUMP JUMPDEST PUSH1 0x0 PUSH2 0x683 DUP3 PUSH2 0x10EF JUMP JUMPDEST POP PUSH1 0x0 SWAP1 DUP2 MSTORE PUSH1 0x4 PUSH1 0x20 MSTORE PUSH1 0x40 SWAP1 KECCAK256 SLOAD PUSH1 0x1 PUSH1 0x1 PUSH1 0xA0 SHL SUB AND SWAP1 JUMP JUMPDEST PUSH1 0x0 PUSH2 0x6AA DUP3 PUSH2 0xE4E JUMP JUMPDEST SWAP1 POP DUP1 PUSH1 0x1 PUSH1 0x1 PUSH1 0xA0 SHL SUB AND DUP4 PUSH1 0x1 PUSH1 0x1 PUSH1 0xA0 SHL SUB AND SUB PUSH2 0x71C JUMPI PUSH1 0x40 MLOAD PUSH3 0x461BCD PUSH1 0xE5 SHL DUP2 MSTORE PUSH1 0x20 PUSH1 0x4 DUP3 ADD MSTORE PUSH1 0x21 PUSH1 0x24 DUP3 ADD MSTORE PUSH32 0x4552433732313A20617070726F76616C20746F2063757272656E74206F776E65 PUSH1 0x44 DUP3 ADD MSTORE PUSH1 0x39 PUSH1 0xF9 SHL PUSH1 0x64 DUP3 ADD MSTORE PUSH1 0x84 ADD JUMPDEST PUSH1 0x40 MLOAD DUP1 SWAP2 SUB SWAP1 REVERT JUMPDEST CALLER PUSH1 0x1 PUSH1 0x1 PUSH1 0xA0 SHL SUB DUP3 AND EQ DUP1 PUSH2 0x738 JUMPI POP PUSH2 0x738 DUP2 CALLER PUSH2 0x562 JUMP JUMPDEST PUSH2 0x7AA JUMPI PUSH1 0x40 MLOAD PUSH3 0x461BCD PUSH1 0xE5 SHL DUP2 MSTORE PUSH1 0x20 PUSH1 0x4 DUP3 ADD MSTORE PUSH1 0x3D PUSH1 0x24 DUP3 ADD MSTORE PUSH32 0x4552433732313A20617070726F76652063616C6C6572206973206E6F7420746F PUSH1 0x44 DUP3 ADD MSTORE PUSH32 0x6B656E206F776E6572206F7220617070726F76656420666F7220616C6C000000 PUSH1 0x64 DUP3 ADD MSTORE PUSH1 0x84 ADD PUSH2 0x713 JUMP JUMPDEST PUSH2 0x7B4 DUP4 DUP4 PUSH2 0x114E JUMP JUMPDEST POP POP POP JUMP JUMPDEST PUSH2 0x7C1 PUSH2 0x11BC JUMP JUMPDEST PUSH1 0x1 DUP2 PUSH1 0xFF AND LT ISZERO DUP1 ISZERO PUSH2 0x7D9 JUMPI POP PUSH1 0x3 DUP2 PUSH1 0xFF AND GT ISZERO JUMPDEST PUSH2 0x819 JUMPI PUSH1 0x40 MLOAD PUSH3 0x461BCD PUSH1 0xE5 SHL DUP2 MSTORE PUSH1 0x20 PUSH1 0x4 DUP3 ADD MSTORE PUSH1 0x11 PUSH1 0x24 DUP3 ADD MSTORE PUSH17 0x496E76616C696420636172642074797065 PUSH1 0x78 SHL PUSH1 0x44 DUP3 ADD MSTORE PUSH1 0x64 ADD PUSH2 0x713 JUMP JUMPDEST PUSH1 0x0 JUMPDEST PUSH1 0x5 DUP2 PUSH1 0xFF AND LT ISZERO PUSH2 0x870 JUMPI PUSH1 0x0 PUSH2 0x835 DUP4 PUSH1 0x5 PUSH2 0x1209 JUMP JUMPDEST SWAP1 POP PUSH2 0x85D CALLER DUP3 DUP5 PUSH1 0xFF AND DUP2 MLOAD DUP2 LT PUSH2 0x850 JUMPI PUSH2 0x850 PUSH2 0x291C JUMP JUMPDEST PUSH1 0x20 MUL PUSH1 0x20 ADD ADD MLOAD PUSH2 0x1353 JUMP JUMPDEST POP DUP1 PUSH2 0x868 DUP2 PUSH2 0x2948 JUMP JUMPDEST SWAP2 POP POP PUSH2 0x81C JUMP JUMPDEST POP PUSH1 0xB SLOAD PUSH1 0x40 MLOAD PUSH4 0x23B872DD PUSH1 0xE0 SHL DUP2 MSTORE CALLER PUSH1 0x4 DUP3 ADD MSTORE ADDRESS PUSH1 0x24 DUP3 ADD MSTORE PUSH9 0x2B5E3AF16B1880000 PUSH1 0x44 DUP3 ADD MSTORE PUSH1 0x1 PUSH1 0x1 PUSH1 0xA0 SHL SUB SWAP1 SWAP2 AND SWAP1 PUSH4 0x23B872DD SWAP1 PUSH1 0x64 ADD JUMPDEST PUSH1 0x20 PUSH1 0x40 MLOAD DUP1 DUP4 SUB DUP2 PUSH1 0x0 DUP8 GAS CALL ISZERO DUP1 ISZERO PUSH2 0x8D1 JUMPI RETURNDATASIZE PUSH1 0x0 DUP1 RETURNDATACOPY RETURNDATASIZE PUSH1 0x0 REVERT JUMPDEST POP POP POP POP PUSH1 0x40 MLOAD RETURNDATASIZE PUSH1 0x1F NOT PUSH1 0x1F DUP3 ADD AND DUP3 ADD DUP1 PUSH1 0x40 MSTORE POP DUP2 ADD SWAP1 PUSH2 0x8F5 SWAP2 SWAP1 PUSH2 0x2967 JUMP JUMPDEST POP POP JUMP JUMPDEST PUSH2 0x903 CALLER DUP3 PUSH2 0x16D9 JUMP JUMPDEST PUSH2 0x91F JUMPI PUSH1 0x40 MLOAD PUSH3 0x461BCD PUSH1 0xE5 SHL DUP2 MSTORE PUSH1 0x4 ADD PUSH2 0x713 SWAP1 PUSH2 0x2984 JUMP JUMPDEST PUSH2 0x7B4 DUP4 DUP4 DUP4 PUSH2 0x1758 JUMP JUMPDEST PUSH1 0x18 DUP2 DUP2 SLOAD DUP2 LT PUSH2 0x93A JUMPI PUSH1 0x0 DUP1 REVERT JUMPDEST PUSH1 0x0 SWAP2 DUP3 MSTORE PUSH1 0x20 SWAP1 SWAP2 KECCAK256 ADD SLOAD SWAP1 POP DUP2 JUMP JUMPDEST PUSH1 0x16 DUP2 DUP2 SLOAD DUP2 LT PUSH2 0x93A JUMPI PUSH1 0x0 DUP1 REVERT JUMPDEST PUSH1 0x0 PUSH2 0x966 DUP4 PUSH2 0xEAE JUMP JUMPDEST DUP3 LT PUSH2 0x9C8 JUMPI PUSH1 0x40 MLOAD PUSH3 0x461BCD PUSH1 0xE5 SHL DUP2 MSTORE PUSH1 0x20 PUSH1 0x4 DUP3 ADD MSTORE PUSH1 0x2B PUSH1 0x24 DUP3 ADD MSTORE PUSH32 0x455243373231456E756D657261626C653A206F776E657220696E646578206F75 PUSH1 0x44 DUP3 ADD MSTORE PUSH11 0x74206F6620626F756E6473 PUSH1 0xA8 SHL PUSH1 0x64 DUP3 ADD MSTORE PUSH1 0x84 ADD PUSH2 0x713 JUMP JUMPDEST POP PUSH1 0x1 PUSH1 0x1 PUSH1 0xA0 SHL SUB SWAP2 SWAP1 SWAP2 AND PUSH1 0x0 SWAP1 DUP2 MSTORE PUSH1 0x6 PUSH1 0x20 SWAP1 DUP2 MSTORE PUSH1 0x40 DUP1 DUP4 KECCAK256 SWAP4 DUP4 MSTORE SWAP3 SWAP1 MSTORE KECCAK256 SLOAD SWAP1 JUMP JUMPDEST PUSH2 0x9F9 PUSH2 0x18C9 JUMP JUMPDEST PUSH2 0xA05 DUP5 DUP5 DUP5 DUP5 PUSH2 0x1923 JUMP JUMPDEST POP POP POP POP JUMP JUMPDEST PUSH2 0xA13 PUSH2 0x18C9 JUMP JUMPDEST PUSH1 0xB SLOAD PUSH1 0x40 MLOAD PUSH4 0x70A08231 PUSH1 0xE0 SHL DUP2 MSTORE ADDRESS PUSH1 0x4 DUP3 ADD MSTORE PUSH1 0x0 SWAP2 PUSH1 0x1 PUSH1 0x1 PUSH1 0xA0 SHL SUB AND SWAP1 PUSH4 0x70A08231 SWAP1 PUSH1 0x24 ADD PUSH1 0x20 PUSH1 0x40 MLOAD DUP1 DUP4 SUB DUP2 DUP7 GAS STATICCALL ISZERO DUP1 ISZERO PUSH2 0xA5C JUMPI RETURNDATASIZE PUSH1 0x0 DUP1 RETURNDATACOPY RETURNDATASIZE PUSH1 0x0 REVERT JUMPDEST POP POP POP POP PUSH1 0x40 MLOAD RETURNDATASIZE PUSH1 0x1F NOT PUSH1 0x1F DUP3 ADD AND DUP3 ADD DUP1 PUSH1 0x40 MSTORE POP DUP2 ADD SWAP1 PUSH2 0xA80 SWAP2 SWAP1 PUSH2 0x29D1 JUMP JUMPDEST PUSH1 0xB SLOAD PUSH1 0x40 MLOAD PUSH4 0xA9059CBB PUSH1 0xE0 SHL DUP2 MSTORE CALLER PUSH1 0x4 DUP3 ADD MSTORE PUSH1 0x24 DUP2 ADD DUP4 SWAP1 MSTORE SWAP2 SWAP3 POP PUSH1 0x1 PUSH1 0x1 PUSH1 0xA0 SHL SUB AND SWAP1 PUSH4 0xA9059CBB SWAP1 PUSH1 0x44 ADD PUSH2 0x8B2 JUMP JUMPDEST PUSH2 0x7B4 DUP4 DUP4 DUP4 PUSH1 0x40 MLOAD DUP1 PUSH1 0x20 ADD PUSH1 0x40 MSTORE DUP1 PUSH1 0x0 DUP2 MSTORE POP PUSH2 0xF80 JUMP JUMPDEST CALLER PUSH2 0xADD DUP3 PUSH2 0xE4E JUMP JUMPDEST PUSH1 0x1 PUSH1 0x1 PUSH1 0xA0 SHL SUB AND EQ PUSH2 0xB3E JUMPI PUSH1 0x40 MLOAD PUSH3 0x461BCD PUSH1 0xE5 SHL DUP2 MSTORE PUSH1 0x20 PUSH1 0x4 DUP3 ADD MSTORE PUSH1 0x22 PUSH1 0x24 DUP3 ADD MSTORE PUSH32 0x4F6E6C7920746865206F776E65722063616E206275726E207468697320746F6B PUSH1 0x44 DUP3 ADD MSTORE PUSH2 0x32B7 PUSH1 0xF1 SHL PUSH1 0x64 DUP3 ADD MSTORE PUSH1 0x84 ADD PUSH2 0x713 JUMP JUMPDEST PUSH1 0xB SLOAD PUSH1 0x40 MLOAD PUSH4 0x70A08231 PUSH1 0xE0 SHL DUP2 MSTORE ADDRESS PUSH1 0x4 DUP3 ADD MSTORE PUSH8 0x6124FEE993BC0000 SWAP2 PUSH1 0x1 PUSH1 0x1 PUSH1 0xA0 SHL SUB AND SWAP1 PUSH4 0x70A08231 SWAP1 PUSH1 0x24 ADD PUSH1 0x20 PUSH1 0x40 MLOAD DUP1 DUP4 SUB DUP2 DUP7 GAS STATICCALL ISZERO DUP1 ISZERO PUSH2 0xB8E JUMPI RETURNDATASIZE PUSH1 0x0 DUP1 RETURNDATACOPY RETURNDATASIZE PUSH1 0x0 REVERT JUMPDEST POP POP POP POP PUSH1 0x40 MLOAD RETURNDATASIZE PUSH1 0x1F NOT PUSH1 0x1F DUP3 ADD AND DUP3 ADD DUP1 PUSH1 0x40 MSTORE POP DUP2 ADD SWAP1 PUSH2 0xBB2 SWAP2 SWAP1 PUSH2 0x29D1 JUMP JUMPDEST LT ISZERO PUSH2 0xC18 JUMPI PUSH1 0x40 MLOAD PUSH3 0x461BCD PUSH1 0xE5 SHL DUP2 MSTORE PUSH1 0x20 PUSH1 0x4 DUP3 ADD MSTORE PUSH1 0x2F PUSH1 0x24 DUP3 ADD MSTORE PUSH32 0x436F6E74726163742068617320696E73756666696369656E742062616C616E63 PUSH1 0x44 DUP3 ADD MSTORE PUSH15 0x19481D1BC81C185E481C995DD85C99 PUSH1 0x8A SHL PUSH1 0x64 DUP3 ADD MSTORE PUSH1 0x84 ADD PUSH2 0x713 JUMP JUMPDEST CALLER PUSH1 0x0 SWAP1 DUP2 MSTORE PUSH1 0x15 PUSH1 0x20 MSTORE PUSH1 0x40 SWAP1 KECCAK256 SLOAD PUSH1 0x13 SLOAD TIMESTAMP SWAP2 SWAP1 PUSH2 0xC38 DUP3 DUP5 PUSH2 0x29EA JUMP JUMPDEST GT ISZERO PUSH2 0xC5E JUMPI CALLER PUSH1 0x0 SWAP1 DUP2 MSTORE PUSH1 0x14 PUSH1 0x20 SWAP1 DUP2 MSTORE PUSH1 0x40 DUP1 DUP4 KECCAK256 DUP4 SWAP1 SSTORE PUSH1 0x15 SWAP1 SWAP2 MSTORE SWAP1 KECCAK256 DUP3 SWAP1 SSTORE JUMPDEST PUSH1 0x12 SLOAD CALLER PUSH1 0x0 SWAP1 DUP2 MSTORE PUSH1 0x14 PUSH1 0x20 MSTORE PUSH1 0x40 SWAP1 KECCAK256 SLOAD LT PUSH2 0xCCD JUMPI PUSH1 0x40 MLOAD PUSH3 0x461BCD PUSH1 0xE5 SHL DUP2 MSTORE PUSH1 0x20 PUSH1 0x4 DUP3 ADD MSTORE PUSH1 0x26 PUSH1 0x24 DUP3 ADD MSTORE PUSH32 0x4275726E206C696D6974207265616368656420666F7220746869732074696D65 PUSH1 0x44 DUP3 ADD MSTORE PUSH6 0x206672616D65 PUSH1 0xD0 SHL PUSH1 0x64 DUP3 ADD MSTORE PUSH1 0x84 ADD PUSH2 0x713 JUMP JUMPDEST PUSH2 0xCD6 DUP4 PUSH2 0x1B39 JUMP JUMPDEST CALLER PUSH1 0x0 SWAP1 DUP2 MSTORE PUSH1 0x14 PUSH1 0x20 MSTORE PUSH1 0x40 DUP2 KECCAK256 DUP1 SLOAD PUSH1 0x1 SWAP3 SWAP1 PUSH2 0xCF6 SWAP1 DUP5 SWAP1 PUSH2 0x29FD JUMP JUMPDEST SWAP1 SWAP2 SSTORE POP POP PUSH1 0xB SLOAD PUSH1 0x40 MLOAD PUSH4 0xA9059CBB PUSH1 0xE0 SHL DUP2 MSTORE CALLER PUSH1 0x4 DUP3 ADD MSTORE PUSH8 0x6124FEE993BC0000 PUSH1 0x24 DUP3 ADD DUP2 SWAP1 MSTORE SWAP2 PUSH1 0x1 PUSH1 0x1 PUSH1 0xA0 SHL SUB AND SWAP1 PUSH4 0xA9059CBB SWAP1 PUSH1 0x44 ADD PUSH1 0x20 PUSH1 0x40 MLOAD DUP1 DUP4 SUB DUP2 PUSH1 0x0 DUP8 GAS CALL ISZERO DUP1 ISZERO PUSH2 0xD54 JUMPI RETURNDATASIZE PUSH1 0x0 DUP1 RETURNDATACOPY RETURNDATASIZE PUSH1 0x0 REVERT JUMPDEST POP POP POP POP PUSH1 0x40 MLOAD RETURNDATASIZE PUSH1 0x1F NOT PUSH1 0x1F DUP3 ADD AND DUP3 ADD DUP1 PUSH1 0x40 MSTORE POP DUP2 ADD SWAP1 PUSH2 0xD78 SWAP2 SWAP1 PUSH2 0x2967 JUMP JUMPDEST POP POP POP POP POP JUMP JUMPDEST PUSH2 0xD87 PUSH2 0x18C9 JUMP JUMPDEST PUSH2 0xD8F PUSH2 0x1BDC JUMP JUMPDEST JUMP JUMPDEST PUSH2 0xD99 PUSH2 0x18C9 JUMP JUMPDEST PUSH1 0xB DUP1 SLOAD PUSH1 0x1 PUSH1 0x1 PUSH1 0xA0 SHL SUB NOT AND PUSH1 0x1 PUSH1 0x1 PUSH1 0xA0 SHL SUB SWAP3 SWAP1 SWAP3 AND SWAP2 SWAP1 SWAP2 OR SWAP1 SSTORE JUMP JUMPDEST PUSH1 0x0 PUSH2 0xDC6 PUSH1 0x8 SLOAD SWAP1 JUMP JUMPDEST DUP3 LT PUSH2 0xE29 JUMPI PUSH1 0x40 MLOAD PUSH3 0x461BCD PUSH1 0xE5 SHL DUP2 MSTORE PUSH1 0x20 PUSH1 0x4 DUP3 ADD MSTORE PUSH1 0x2C PUSH1 0x24 DUP3 ADD MSTORE PUSH32 0x455243373231456E756D657261626C653A20676C6F62616C20696E646578206F PUSH1 0x44 DUP3 ADD MSTORE PUSH12 0x7574206F6620626F756E6473 PUSH1 0xA0 SHL PUSH1 0x64 DUP3 ADD MSTORE PUSH1 0x84 ADD PUSH2 0x713 JUMP JUMPDEST PUSH1 0x8 DUP3 DUP2 SLOAD DUP2 LT PUSH2 0xE3C JUMPI PUSH2 0xE3C PUSH2 0x291C JUMP JUMPDEST SWAP1 PUSH1 0x0 MSTORE PUSH1 0x20 PUSH1 0x0 KECCAK256 ADD SLOAD SWAP1 POP SWAP2 SWAP1 POP JUMP JUMPDEST PUSH1 0x0 DUP2 DUP2 MSTORE PUSH1 0x2 PUSH1 0x20 MSTORE PUSH1 0x40 DUP2 KECCAK256 SLOAD PUSH1 0x1 PUSH1 0x1 PUSH1 0xA0 SHL SUB AND DUP1 PUSH2 0x5E0 JUMPI PUSH1 0x40 MLOAD PUSH3 0x461BCD PUSH1 0xE5 SHL DUP2 MSTORE PUSH1 0x20 PUSH1 0x4 DUP3 ADD MSTORE PUSH1 0x18 PUSH1 0x24 DUP3 ADD MSTORE PUSH24 0x115490CDCC8C4E881A5B9D985B1A59081D1BDAD95B881251 PUSH1 0x42 SHL PUSH1 0x44 DUP3 ADD MSTORE PUSH1 0x64 ADD PUSH2 0x713 JUMP JUMPDEST PUSH1 0x0 PUSH1 0x1 PUSH1 0x1 PUSH1 0xA0 SHL SUB DUP3 AND PUSH2 0xF18 JUMPI PUSH1 0x40 MLOAD PUSH3 0x461BCD PUSH1 0xE5 SHL DUP2 MSTORE PUSH1 0x20 PUSH1 0x4 DUP3 ADD MSTORE PUSH1 0x29 PUSH1 0x24 DUP3 ADD MSTORE PUSH32 0x4552433732313A2061646472657373207A65726F206973206E6F742061207661 PUSH1 0x44 DUP3 ADD MSTORE PUSH9 0x3634B21037BBB732B9 PUSH1 0xB9 SHL PUSH1 0x64 DUP3 ADD MSTORE PUSH1 0x84 ADD PUSH2 0x713 JUMP JUMPDEST POP PUSH1 0x1 PUSH1 0x1 PUSH1 0xA0 SHL SUB AND PUSH1 0x0 SWAP1 DUP2 MSTORE PUSH1 0x3 PUSH1 0x20 MSTORE PUSH1 0x40 SWAP1 KECCAK256 SLOAD SWAP1 JUMP JUMPDEST PUSH2 0xF3C PUSH2 0x18C9 JUMP JUMPDEST PUSH2 0xD8F PUSH1 0x0 PUSH2 0x1C3C JUMP JUMPDEST PUSH1 0x60 PUSH1 0x1 DUP1 SLOAD PUSH2 0x5F5 SWAP1 PUSH2 0x28E2 JUMP JUMPDEST PUSH1 0x17 DUP2 DUP2 SLOAD DUP2 LT PUSH2 0x93A JUMPI PUSH1 0x0 DUP1 REVERT JUMPDEST PUSH2 0x8F5 CALLER DUP4 DUP4 PUSH2 0x1C8E JUMP JUMPDEST PUSH2 0xF78 PUSH2 0x18C9 JUMP JUMPDEST PUSH2 0xD8F PUSH2 0x1D5C JUMP JUMPDEST PUSH2 0xF8A CALLER DUP4 PUSH2 0x16D9 JUMP JUMPDEST PUSH2 0xFA6 JUMPI PUSH1 0x40 MLOAD PUSH3 0x461BCD PUSH1 0xE5 SHL DUP2 MSTORE PUSH1 0x4 ADD PUSH2 0x713 SWAP1 PUSH2 0x2984 JUMP JUMPDEST PUSH2 0xA05 DUP5 DUP5 DUP5 DUP5 PUSH2 0x1D98 JUMP JUMPDEST PUSH1 0x60 PUSH2 0xFBD DUP3 PUSH2 0x10EF JUMP JUMPDEST PUSH1 0x0 PUSH2 0xFD4 PUSH1 0x40 DUP1 MLOAD PUSH1 0x20 DUP2 ADD SWAP1 SWAP2 MSTORE PUSH1 0x0 DUP2 MSTORE SWAP1 JUMP JUMPDEST SWAP1 POP PUSH1 0x0 DUP2 MLOAD GT PUSH2 0xFF4 JUMPI PUSH1 0x40 MLOAD DUP1 PUSH1 0x20 ADD PUSH1 0x40 MSTORE DUP1 PUSH1 0x0 DUP2 MSTORE POP PUSH2 0x101F JUMP JUMPDEST DUP1 PUSH2 0xFFE DUP5 PUSH2 0x1DCB JUMP JUMPDEST PUSH1 0x40 MLOAD PUSH1 0x20 ADD PUSH2 0x100F SWAP3 SWAP2 SWAP1 PUSH2 0x2A10 JUMP JUMPDEST PUSH1 0x40 MLOAD PUSH1 0x20 DUP2 DUP4 SUB SUB DUP2 MSTORE SWAP1 PUSH1 0x40 MSTORE JUMPDEST SWAP4 SWAP3 POP POP POP JUMP JUMPDEST PUSH2 0x102E PUSH2 0x18C9 JUMP JUMPDEST PUSH1 0x1 PUSH1 0x1 PUSH1 0xA0 SHL SUB DUP2 AND PUSH2 0x1093 JUMPI PUSH1 0x40 MLOAD PUSH3 0x461BCD PUSH1 0xE5 SHL DUP2 MSTORE PUSH1 0x20 PUSH1 0x4 DUP3 ADD MSTORE PUSH1 0x26 PUSH1 0x24 DUP3 ADD MSTORE PUSH32 0x4F776E61626C653A206E6577206F776E657220697320746865207A65726F2061 PUSH1 0x44 DUP3 ADD MSTORE PUSH6 0x646472657373 PUSH1 0xD0 SHL PUSH1 0x64 DUP3 ADD MSTORE PUSH1 0x84 ADD PUSH2 0x713 JUMP JUMPDEST PUSH2 0x109C DUP2 PUSH2 0x1C3C JUMP JUMPDEST POP JUMP JUMPDEST PUSH1 0x0 PUSH1 0x1 PUSH1 0x1 PUSH1 0xE0 SHL SUB NOT DUP3 AND PUSH4 0x80AC58CD PUSH1 0xE0 SHL EQ DUP1 PUSH2 0x10D0 JUMPI POP PUSH1 0x1 PUSH1 0x1 PUSH1 0xE0 SHL SUB NOT DUP3 AND PUSH4 0x5B5E139F PUSH1 0xE0 SHL EQ JUMPDEST DUP1 PUSH2 0x5E0 JUMPI POP PUSH4 0x1FFC9A7 PUSH1 0xE0 SHL PUSH1 0x1 PUSH1 0x1 PUSH1 0xE0 SHL SUB NOT DUP4 AND EQ PUSH2 0x5E0 JUMP JUMPDEST PUSH1 0x0 DUP2 DUP2 MSTORE PUSH1 0x2 PUSH1 0x20 MSTORE PUSH1 0x40 SWAP1 KECCAK256 SLOAD PUSH1 0x1 PUSH1 0x1 PUSH1 0xA0 SHL SUB AND PUSH2 0x109C JUMPI PUSH1 0x40 MLOAD PUSH3 0x461BCD PUSH1 0xE5 SHL DUP2 MSTORE PUSH1 0x20 PUSH1 0x4 DUP3 ADD MSTORE PUSH1 0x18 PUSH1 0x24 DUP3 ADD MSTORE PUSH24 0x115490CDCC8C4E881A5B9D985B1A59081D1BDAD95B881251 PUSH1 0x42 SHL PUSH1 0x44 DUP3 ADD MSTORE PUSH1 0x64 ADD PUSH2 0x713 JUMP JUMPDEST PUSH1 0x0 DUP2 DUP2 MSTORE PUSH1 0x4 PUSH1 0x20 MSTORE PUSH1 0x40 SWAP1 KECCAK256 DUP1 SLOAD PUSH1 0x1 PUSH1 0x1 PUSH1 0xA0 SHL SUB NOT AND PUSH1 0x1 PUSH1 0x1 PUSH1 0xA0 SHL SUB DUP5 AND SWAP1 DUP2 OR SWAP1 SWAP2 SSTORE DUP2 SWAP1 PUSH2 0x1183 DUP3 PUSH2 0xE4E JUMP JUMPDEST PUSH1 0x1 PUSH1 0x1 PUSH1 0xA0 SHL SUB AND PUSH32 0x8C5BE1E5EBEC7D5BD14F71427D1E84F3DD0314C0F7B2291E5B200AC8C7C3B925 PUSH1 0x40 MLOAD PUSH1 0x40 MLOAD DUP1 SWAP2 SUB SWAP1 LOG4 POP POP JUMP JUMPDEST PUSH1 0xA SLOAD PUSH1 0x1 PUSH1 0xA0 SHL SWAP1 DIV PUSH1 0xFF AND ISZERO PUSH2 0xD8F JUMPI PUSH1 0x40 MLOAD PUSH3 0x461BCD PUSH1 0xE5 SHL DUP2 MSTORE PUSH1 0x20 PUSH1 0x4 DUP3 ADD MSTORE PUSH1 0x10 PUSH1 0x24 DUP3 ADD MSTORE PUSH16 0x14185D5CD8589B194E881C185D5CD959 PUSH1 0x82 SHL PUSH1 0x44 DUP3 ADD MSTORE PUSH1 0x64 ADD PUSH2 0x713 JUMP JUMPDEST PUSH1 0x60 PUSH1 0x0 DUP3 PUSH8 0xFFFFFFFFFFFFFFFF DUP2 GT ISZERO PUSH2 0x1226 JUMPI PUSH2 0x1226 PUSH2 0x27BD JUMP JUMPDEST PUSH1 0x40 MLOAD SWAP1 DUP1 DUP3 MSTORE DUP1 PUSH1 0x20 MUL PUSH1 0x20 ADD DUP3 ADD PUSH1 0x40 MSTORE DUP1 ISZERO PUSH2 0x124F JUMPI DUP2 PUSH1 0x20 ADD PUSH1 0x20 DUP3 MUL DUP1 CALLDATASIZE DUP4 CALLDATACOPY ADD SWAP1 POP JUMPDEST POP SWAP1 POP PUSH1 0x0 JUMPDEST DUP4 DUP2 LT ISZERO PUSH2 0x134B JUMPI DUP5 PUSH1 0xFF AND PUSH1 0x1 SUB PUSH2 0x12BB JUMPI PUSH1 0x16 SLOAD PUSH1 0x0 SWAP1 PUSH2 0x1277 SWAP1 PUSH2 0x1E5E JUMP JUMPDEST SWAP1 POP PUSH1 0x16 DUP2 DUP2 SLOAD DUP2 LT PUSH2 0x128C JUMPI PUSH2 0x128C PUSH2 0x291C JUMP JUMPDEST SWAP1 PUSH1 0x0 MSTORE PUSH1 0x20 PUSH1 0x0 KECCAK256 ADD SLOAD DUP4 DUP4 DUP2 MLOAD DUP2 LT PUSH2 0x12A9 JUMPI PUSH2 0x12A9 PUSH2 0x291C JUMP JUMPDEST PUSH1 0x20 MUL PUSH1 0x20 ADD ADD DUP2 DUP2 MSTORE POP POP POP PUSH2 0x1339 JUMP JUMPDEST DUP5 PUSH1 0xFF AND PUSH1 0x2 SUB PUSH2 0x12EA JUMPI PUSH1 0x17 SLOAD PUSH1 0x0 SWAP1 PUSH2 0x12D5 SWAP1 PUSH2 0x1E5E JUMP JUMPDEST SWAP1 POP PUSH1 0x17 DUP2 DUP2 SLOAD DUP2 LT PUSH2 0x128C JUMPI PUSH2 0x128C PUSH2 0x291C JUMP JUMPDEST PUSH1 0x18 SLOAD PUSH1 0x0 SWAP1 PUSH2 0x12F9 SWAP1 PUSH2 0x1E5E JUMP JUMPDEST SWAP1 POP PUSH1 0x18 DUP2 DUP2 SLOAD DUP2 LT PUSH2 0x130E JUMPI PUSH2 0x130E PUSH2 0x291C JUMP JUMPDEST SWAP1 PUSH1 0x0 MSTORE PUSH1 0x20 PUSH1 0x0 KECCAK256 ADD SLOAD DUP4 DUP4 DUP2 MLOAD DUP2 LT PUSH2 0x132B JUMPI PUSH2 0x132B PUSH2 0x291C JUMP JUMPDEST PUSH1 0x20 MUL PUSH1 0x20 ADD ADD DUP2 DUP2 MSTORE POP POP POP JUMPDEST DUP1 PUSH2 0x1343 DUP2 PUSH2 0x2A3F JUMP JUMPDEST SWAP2 POP POP PUSH2 0x1255 JUMP JUMPDEST POP SWAP4 SWAP3 POP POP POP JUMP JUMPDEST PUSH1 0x64 PUSH2 0x135E PUSH1 0xF SLOAD SWAP1 JUMP JUMPDEST LT PUSH2 0x139B JUMPI PUSH1 0x40 MLOAD PUSH3 0x461BCD PUSH1 0xE5 SHL DUP2 MSTORE PUSH1 0x20 PUSH1 0x4 DUP3 ADD MSTORE PUSH1 0xD PUSH1 0x24 DUP3 ADD MSTORE PUSH13 0x139BC818D85C991CC81B19599D PUSH1 0x9A SHL PUSH1 0x44 DUP3 ADD MSTORE PUSH1 0x64 ADD PUSH2 0x713 JUMP JUMPDEST PUSH1 0x0 DUP2 DUP2 MSTORE PUSH1 0x11 PUSH1 0x20 MSTORE PUSH1 0x40 SWAP1 KECCAK256 SLOAD PUSH2 0x13F6 JUMPI PUSH1 0x40 MLOAD PUSH3 0x461BCD PUSH1 0xE5 SHL DUP2 MSTORE PUSH1 0x20 PUSH1 0x4 DUP3 ADD MSTORE PUSH1 0x1B PUSH1 0x24 DUP3 ADD MSTORE PUSH32 0x4E6F2073746F636B206C65667420666F72207468697320636172640000000000 PUSH1 0x44 DUP3 ADD MSTORE PUSH1 0x64 ADD PUSH2 0x713 JUMP JUMPDEST PUSH1 0x0 PUSH2 0x1400 PUSH2 0x1EC8 JUMP JUMPDEST SWAP1 POP PUSH2 0x1410 PUSH1 0xF DUP1 SLOAD PUSH1 0x1 ADD SWAP1 SSTORE JUMP JUMPDEST PUSH1 0x0 PUSH2 0x141B PUSH1 0xF SLOAD SWAP1 JUMP JUMPDEST PUSH1 0x40 DUP1 MLOAD DUP1 DUP3 ADD DUP3 MSTORE DUP6 DUP2 MSTORE PUSH1 0xFF DUP6 DUP2 AND PUSH1 0x20 DUP1 DUP5 ADD SWAP2 DUP3 MSTORE PUSH1 0x0 DUP7 DUP2 MSTORE PUSH1 0x10 DUP3 MSTORE DUP6 DUP2 KECCAK256 SWAP5 MLOAD DUP6 SSTORE SWAP2 MLOAD PUSH1 0x1 SWAP5 DUP6 ADD DUP1 SLOAD PUSH1 0xFF NOT AND SWAP2 SWAP1 SWAP5 AND OR SWAP1 SWAP3 SSTORE DUP8 DUP2 MSTORE PUSH1 0x11 SWAP1 SWAP2 MSTORE SWAP2 DUP3 KECCAK256 DUP1 SLOAD SWAP4 SWAP5 POP SWAP1 SWAP3 SWAP1 SWAP2 SWAP1 PUSH2 0x1479 SWAP1 DUP5 SWAP1 PUSH2 0x29EA JUMP JUMPDEST SWAP1 SWAP2 SSTORE POP POP PUSH1 0x0 DUP4 DUP2 MSTORE PUSH1 0x11 PUSH1 0x20 MSTORE PUSH1 0x40 DUP2 KECCAK256 SLOAD SWAP1 SUB PUSH2 0x16CF JUMPI PUSH2 0x149E PUSH1 0x3 DUP5 PUSH2 0x2A58 JUMP JUMPDEST PUSH1 0x0 SUB PUSH2 0x1564 JUMPI PUSH1 0x0 JUMPDEST PUSH1 0x16 SLOAD DUP2 LT ISZERO PUSH2 0x155E JUMPI DUP4 PUSH1 0x16 DUP3 DUP2 SLOAD DUP2 LT PUSH2 0x14C6 JUMPI PUSH2 0x14C6 PUSH2 0x291C JUMP JUMPDEST SWAP1 PUSH1 0x0 MSTORE PUSH1 0x20 PUSH1 0x0 KECCAK256 ADD SLOAD SUB PUSH2 0x154C JUMPI PUSH1 0x16 DUP1 SLOAD PUSH2 0x14E6 SWAP1 PUSH1 0x1 SWAP1 PUSH2 0x29EA JUMP JUMPDEST DUP2 SLOAD DUP2 LT PUSH2 0x14F6 JUMPI PUSH2 0x14F6 PUSH2 0x291C JUMP JUMPDEST SWAP1 PUSH1 0x0 MSTORE PUSH1 0x20 PUSH1 0x0 KECCAK256 ADD SLOAD PUSH1 0x16 DUP3 DUP2 SLOAD DUP2 LT PUSH2 0x1514 JUMPI PUSH2 0x1514 PUSH2 0x291C JUMP JUMPDEST PUSH1 0x0 SWAP2 DUP3 MSTORE PUSH1 0x20 SWAP1 SWAP2 KECCAK256 ADD SSTORE PUSH1 0x16 DUP1 SLOAD DUP1 PUSH2 0x1531 JUMPI PUSH2 0x1531 PUSH2 0x2A7A JUMP JUMPDEST PUSH1 0x1 SWAP1 SUB DUP2 DUP2 SWAP1 PUSH1 0x0 MSTORE PUSH1 0x20 PUSH1 0x0 KECCAK256 ADD PUSH1 0x0 SWAP1 SSTORE SWAP1 SSTORE PUSH2 0x155E JUMP JUMPDEST DUP1 PUSH2 0x1556 DUP2 PUSH2 0x2A3F JUMP JUMPDEST SWAP2 POP POP PUSH2 0x14A8 JUMP JUMPDEST POP PUSH2 0x16CF JUMP JUMPDEST PUSH2 0x156F PUSH1 0x3 DUP5 PUSH2 0x2A58 JUMP JUMPDEST PUSH1 0x1 SUB PUSH2 0x1614 JUMPI PUSH1 0x0 JUMPDEST PUSH1 0x17 SLOAD DUP2 LT ISZERO PUSH2 0x155E JUMPI DUP4 PUSH1 0x17 DUP3 DUP2 SLOAD DUP2 LT PUSH2 0x1597 JUMPI PUSH2 0x1597 PUSH2 0x291C JUMP JUMPDEST SWAP1 PUSH1 0x0 MSTORE PUSH1 0x20 PUSH1 0x0 KECCAK256 ADD SLOAD SUB PUSH2 0x1602 JUMPI PUSH1 0x17 DUP1 SLOAD PUSH2 0x15B7 SWAP1 PUSH1 0x1 SWAP1 PUSH2 0x29EA JUMP JUMPDEST DUP2 SLOAD DUP2 LT PUSH2 0x15C7 JUMPI PUSH2 0x15C7 PUSH2 0x291C JUMP JUMPDEST SWAP1 PUSH1 0x0 MSTORE PUSH1 0x20 PUSH1 0x0 KECCAK256 ADD SLOAD PUSH1 0x17 DUP3 DUP2 SLOAD DUP2 LT PUSH2 0x15E5 JUMPI PUSH2 0x15E5 PUSH2 0x291C JUMP JUMPDEST PUSH1 0x0 SWAP2 DUP3 MSTORE PUSH1 0x20 SWAP1 SWAP2 KECCAK256 ADD SSTORE PUSH1 0x17 DUP1 SLOAD DUP1 PUSH2 0x1531 JUMPI PUSH2 0x1531 PUSH2 0x2A7A JUMP JUMPDEST DUP1 PUSH2 0x160C DUP2 PUSH2 0x2A3F JUMP JUMPDEST SWAP2 POP POP PUSH2 0x1579 JUMP JUMPDEST PUSH1 0x0 JUMPDEST PUSH1 0x18 SLOAD DUP2 LT ISZERO PUSH2 0x16CD JUMPI DUP4 PUSH1 0x18 DUP3 DUP2 SLOAD DUP2 LT PUSH2 0x1635 JUMPI PUSH2 0x1635 PUSH2 0x291C JUMP JUMPDEST SWAP1 PUSH1 0x0 MSTORE PUSH1 0x20 PUSH1 0x0 KECCAK256 ADD SLOAD SUB PUSH2 0x16BB JUMPI PUSH1 0x18 DUP1 SLOAD PUSH2 0x1655 SWAP1 PUSH1 0x1 SWAP1 PUSH2 0x29EA JUMP JUMPDEST DUP2 SLOAD DUP2 LT PUSH2 0x1665 JUMPI PUSH2 0x1665 PUSH2 0x291C JUMP JUMPDEST SWAP1 PUSH1 0x0 MSTORE PUSH1 0x20 PUSH1 0x0 KECCAK256 ADD SLOAD PUSH1 0x18 DUP3 DUP2 SLOAD DUP2 LT PUSH2 0x1683 JUMPI PUSH2 0x1683 PUSH2 0x291C JUMP JUMPDEST PUSH1 0x0 SWAP2 DUP3 MSTORE PUSH1 0x20 SWAP1 SWAP2 KECCAK256 ADD SSTORE PUSH1 0x18 DUP1 SLOAD DUP1 PUSH2 0x16A0 JUMPI PUSH2 0x16A0 PUSH2 0x2A7A JUMP JUMPDEST PUSH1 0x1 SWAP1 SUB DUP2 DUP2 SWAP1 PUSH1 0x0 MSTORE PUSH1 0x20 PUSH1 0x0 KECCAK256 ADD PUSH1 0x0 SWAP1 SSTORE SWAP1 SSTORE PUSH2 0x16CD JUMP JUMPDEST DUP1 PUSH2 0x16C5 DUP2 PUSH2 0x2A3F JUMP JUMPDEST SWAP2 POP POP PUSH2 0x1617 JUMP JUMPDEST POP JUMPDEST PUSH2 0xA05 DUP5 DUP3 PUSH2 0x1F0B JUMP JUMPDEST PUSH1 0x0 DUP1 PUSH2 0x16E5 DUP4 PUSH2 0xE4E JUMP JUMPDEST SWAP1 POP DUP1 PUSH1 0x1 PUSH1 0x1 PUSH1 0xA0 SHL SUB AND DUP5 PUSH1 0x1 PUSH1 0x1 PUSH1 0xA0 SHL SUB AND EQ DUP1 PUSH2 0x172C JUMPI POP PUSH1 0x1 PUSH1 0x1 PUSH1 0xA0 SHL SUB DUP1 DUP3 AND PUSH1 0x0 SWAP1 DUP2 MSTORE PUSH1 0x5 PUSH1 0x20 SWAP1 DUP2 MSTORE PUSH1 0x40 DUP1 DUP4 KECCAK256 SWAP4 DUP9 AND DUP4 MSTORE SWAP3 SWAP1 MSTORE KECCAK256 SLOAD PUSH1 0xFF AND JUMPDEST DUP1 PUSH2 0x1750 JUMPI POP DUP4 PUSH1 0x1 PUSH1 0x1 PUSH1 0xA0 SHL SUB AND PUSH2 0x1745 DUP5 PUSH2 0x678 JUMP JUMPDEST PUSH1 0x1 PUSH1 0x1 PUSH1 0xA0 SHL SUB AND EQ JUMPDEST SWAP5 SWAP4 POP POP POP POP JUMP JUMPDEST DUP3 PUSH1 0x1 PUSH1 0x1 PUSH1 0xA0 SHL SUB AND PUSH2 0x176B DUP3 PUSH2 0xE4E JUMP JUMPDEST PUSH1 0x1 PUSH1 0x1 PUSH1 0xA0 SHL SUB AND EQ PUSH2 0x1791 JUMPI PUSH1 0x40 MLOAD PUSH3 0x461BCD PUSH1 0xE5 SHL DUP2 MSTORE PUSH1 0x4 ADD PUSH2 0x713 SWAP1 PUSH2 0x2A90 JUMP JUMPDEST PUSH1 0x1 PUSH1 0x1 PUSH1 0xA0 SHL SUB DUP3 AND PUSH2 0x17F3 JUMPI PUSH1 0x40 MLOAD PUSH3 0x461BCD PUSH1 0xE5 SHL DUP2 MSTORE PUSH1 0x20 PUSH1 0x4 DUP3 ADD MSTORE PUSH1 0x24 DUP1 DUP3 ADD MSTORE PUSH32 0x4552433732313A207472616E7366657220746F20746865207A65726F20616464 PUSH1 0x44 DUP3 ADD MSTORE PUSH4 0x72657373 PUSH1 0xE0 SHL PUSH1 0x64 DUP3 ADD MSTORE PUSH1 0x84 ADD PUSH2 0x713 JUMP JUMPDEST PUSH2 0x1800 DUP4 DUP4 DUP4 PUSH1 0x1 PUSH2 0x1F25 JUMP JUMPDEST DUP3 PUSH1 0x1 PUSH1 0x1 PUSH1 0xA0 SHL SUB AND PUSH2 0x1813 DUP3 PUSH2 0xE4E JUMP JUMPDEST PUSH1 0x1 PUSH1 0x1 PUSH1 0xA0 SHL SUB AND EQ PUSH2 0x1839 JUMPI PUSH1 0x40 MLOAD PUSH3 0x461BCD PUSH1 0xE5 SHL DUP2 MSTORE PUSH1 0x4 ADD PUSH2 0x713 SWAP1 PUSH2 0x2A90 JUMP JUMPDEST PUSH1 0x0 DUP2 DUP2 MSTORE PUSH1 0x4 PUSH1 0x20 SWAP1 DUP2 MSTORE PUSH1 0x40 DUP1 DUP4 KECCAK256 DUP1 SLOAD PUSH1 0x1 PUSH1 0x1 PUSH1 0xA0 SHL SUB NOT SWAP1 DUP2 AND SWAP1 SWAP2 SSTORE PUSH1 0x1 PUSH1 0x1 PUSH1 0xA0 SHL SUB DUP8 DUP2 AND DUP1 DUP7 MSTORE PUSH1 0x3 DUP6 MSTORE DUP4 DUP7 KECCAK256 DUP1 SLOAD PUSH1 0x0 NOT ADD SWAP1 SSTORE SWAP1 DUP8 AND DUP1 DUP7 MSTORE DUP4 DUP7 KECCAK256 DUP1 SLOAD PUSH1 0x1 ADD SWAP1 SSTORE DUP7 DUP7 MSTORE PUSH1 0x2 SWAP1 SWAP5 MSTORE DUP3 DUP6 KECCAK256 DUP1 SLOAD SWAP1 SWAP3 AND DUP5 OR SWAP1 SWAP2 SSTORE SWAP1 MLOAD DUP5 SWAP4 PUSH32 0xDDF252AD1BE2C89B69C2B068FC378DAA952BA7F163C4A11628F55A4DF523B3EF SWAP2 LOG4 POP POP POP JUMP JUMPDEST PUSH1 0xA SLOAD PUSH1 0x1 PUSH1 0x1 PUSH1 0xA0 SHL SUB AND CALLER EQ PUSH2 0xD8F JUMPI PUSH1 0x40 MLOAD PUSH3 0x461BCD PUSH1 0xE5 SHL DUP2 MSTORE PUSH1 0x20 PUSH1 0x4 DUP3 ADD DUP2 SWAP1 MSTORE PUSH1 0x24 DUP3 ADD MSTORE PUSH32 0x4F776E61626C653A2063616C6C6572206973206E6F7420746865206F776E6572 PUSH1 0x44 DUP3 ADD MSTORE PUSH1 0x64 ADD PUSH2 0x713 JUMP JUMPDEST PUSH1 0x0 PUSH1 0xC SLOAD PUSH1 0x3 PUSH2 0x1934 SWAP2 SWAP1 PUSH2 0x2AD5 JUMP JUMPDEST SWAP1 POP JUMPDEST DUP5 PUSH1 0xC SLOAD PUSH2 0x1945 SWAP2 SWAP1 PUSH2 0x29FD JUMP JUMPDEST PUSH2 0x1950 SWAP1 PUSH1 0x3 PUSH2 0x2AD5 JUMP JUMPDEST DUP2 LT ISZERO PUSH2 0x19AB JUMPI PUSH1 0x0 DUP2 DUP2 MSTORE PUSH1 0x11 PUSH1 0x20 MSTORE PUSH1 0x40 DUP2 KECCAK256 DUP4 SWAP1 SSTORE PUSH1 0x16 DUP1 SLOAD PUSH1 0x1 DUP2 ADD DUP3 SSTORE SWAP2 MSTORE PUSH32 0xD833147D7DC355BA459FC788F669E58CFAF9DC25DDCD0702E87D69C7B5124289 ADD DUP2 SWAP1 SSTORE PUSH2 0x19A4 PUSH1 0x3 DUP3 PUSH2 0x29FD JUMP JUMPDEST SWAP1 POP PUSH2 0x1937 JUMP JUMPDEST POP PUSH1 0x0 PUSH1 0xD SLOAD PUSH1 0x3 PUSH2 0x19BD SWAP2 SWAP1 PUSH2 0x2AD5 JUMP JUMPDEST PUSH2 0x19C8 SWAP1 PUSH1 0x1 PUSH2 0x29FD JUMP JUMPDEST SWAP1 POP JUMPDEST DUP4 PUSH1 0xD SLOAD PUSH2 0x19D9 SWAP2 SWAP1 PUSH2 0x29FD JUMP JUMPDEST PUSH2 0x19E4 SWAP1 PUSH1 0x3 PUSH2 0x2AD5 JUMP JUMPDEST PUSH2 0x19EF SWAP1 PUSH1 0x1 PUSH2 0x29FD JUMP JUMPDEST DUP2 LT ISZERO PUSH2 0x1A4A JUMPI PUSH1 0x0 DUP2 DUP2 MSTORE PUSH1 0x11 PUSH1 0x20 MSTORE PUSH1 0x40 DUP2 KECCAK256 DUP4 SWAP1 SSTORE PUSH1 0x17 DUP1 SLOAD PUSH1 0x1 DUP2 ADD DUP3 SSTORE SWAP2 MSTORE PUSH32 0xC624B66CC0138B8FABC209247F72D758E1CF3343756D543BADBF24212BED8C15 ADD DUP2 SWAP1 SSTORE PUSH2 0x1A43 PUSH1 0x3 DUP3 PUSH2 0x29FD JUMP JUMPDEST SWAP1 POP PUSH2 0x19CB JUMP JUMPDEST POP PUSH1 0x0 PUSH1 0xE SLOAD PUSH1 0x3 PUSH2 0x1A5C SWAP2 SWAP1 PUSH2 0x2AD5 JUMP JUMPDEST PUSH2 0x1A67 SWAP1 PUSH1 0x2 PUSH2 0x29FD JUMP JUMPDEST SWAP1 POP JUMPDEST DUP3 PUSH1 0xE SLOAD PUSH2 0x1A78 SWAP2 SWAP1 PUSH2 0x29FD JUMP JUMPDEST PUSH2 0x1A83 SWAP1 PUSH1 0x3 PUSH2 0x2AD5 JUMP JUMPDEST PUSH2 0x1A8E SWAP1 PUSH1 0x2 PUSH2 0x29FD JUMP JUMPDEST DUP2 LT ISZERO PUSH2 0x1AE9 JUMPI PUSH1 0x0 DUP2 DUP2 MSTORE PUSH1 0x11 PUSH1 0x20 MSTORE PUSH1 0x40 DUP2 KECCAK256 DUP4 SWAP1 SSTORE PUSH1 0x18 DUP1 SLOAD PUSH1 0x1 DUP2 ADD DUP3 SSTORE SWAP2 MSTORE PUSH32 0xB13D2D76D1F4B7BE834882E410B3E3A8AFAF69F83600AE24DB354391D2378D2E ADD DUP2 SWAP1 SSTORE PUSH2 0x1AE2 PUSH1 0x3 DUP3 PUSH2 0x29FD JUMP JUMPDEST SWAP1 POP PUSH2 0x1A6A JUMP JUMPDEST POP DUP4 PUSH1 0xC PUSH1 0x0 DUP3 DUP3 SLOAD PUSH2 0x1AFC SWAP2 SWAP1 PUSH2 0x29FD JUMP JUMPDEST SWAP3 POP POP DUP2 SWAP1 SSTORE POP DUP3 PUSH1 0xD PUSH1 0x0 DUP3 DUP3 SLOAD PUSH2 0x1B15 SWAP2 SWAP1 PUSH2 0x29FD JUMP JUMPDEST SWAP3 POP POP DUP2 SWAP1 SSTORE POP DUP2 PUSH1 0xE PUSH1 0x0 DUP3 DUP3 SLOAD PUSH2 0x1B2E SWAP2 SWAP1 PUSH2 0x29FD JUMP JUMPDEST SWAP1 SWAP2 SSTORE POP POP POP POP POP POP JUMP JUMPDEST PUSH1 0x0 PUSH2 0x1B44 DUP3 PUSH2 0xE4E JUMP JUMPDEST SWAP1 POP PUSH2 0x1B54 DUP2 PUSH1 0x0 DUP5 PUSH1 0x1 PUSH2 0x1F25 JUMP JUMPDEST PUSH2 0x1B5D DUP3 PUSH2 0xE4E JUMP JUMPDEST PUSH1 0x0 DUP4 DUP2 MSTORE PUSH1 0x4 PUSH1 0x20 SWAP1 DUP2 MSTORE PUSH1 0x40 DUP1 DUP4 KECCAK256 DUP1 SLOAD PUSH1 0x1 PUSH1 0x1 PUSH1 0xA0 SHL SUB NOT SWAP1 DUP2 AND SWAP1 SWAP2 SSTORE PUSH1 0x1 PUSH1 0x1 PUSH1 0xA0 SHL SUB DUP6 AND DUP1 DUP6 MSTORE PUSH1 0x3 DUP5 MSTORE DUP3 DUP6 KECCAK256 DUP1 SLOAD PUSH1 0x0 NOT ADD SWAP1 SSTORE DUP8 DUP6 MSTORE PUSH1 0x2 SWAP1 SWAP4 MSTORE DUP2 DUP5 KECCAK256 DUP1 SLOAD SWAP1 SWAP2 AND SWAP1 SSTORE MLOAD SWAP3 SWAP4 POP DUP5 SWAP3 PUSH32 0xDDF252AD1BE2C89B69C2B068FC378DAA952BA7F163C4A11628F55A4DF523B3EF SWAP1 DUP4 SWAP1 LOG4 POP POP JUMP JUMPDEST PUSH2 0x1BE4 PUSH2 0x11BC JUMP JUMPDEST PUSH1 0xA DUP1 SLOAD PUSH1 0xFF PUSH1 0xA0 SHL NOT AND PUSH1 0x1 PUSH1 0xA0 SHL OR SWAP1 SSTORE PUSH32 0x62E78CEA01BEE320CD4E420270B5EA74000D11B0C9F74754EBDBFC544B05A258 PUSH2 0x1C1F CALLER SWAP1 JUMP JUMPDEST PUSH1 0x40 MLOAD PUSH1 0x1 PUSH1 0x1 PUSH1 0xA0 SHL SUB SWAP1 SWAP2 AND DUP2 MSTORE PUSH1 0x20 ADD PUSH1 0x40 MLOAD DUP1 SWAP2 SUB SWAP1 LOG1 JUMP JUMPDEST PUSH1 0xA DUP1 SLOAD PUSH1 0x1 PUSH1 0x1 PUSH1 0xA0 SHL SUB DUP4 DUP2 AND PUSH1 0x1 PUSH1 0x1 PUSH1 0xA0 SHL SUB NOT DUP4 AND DUP2 OR SWAP1 SWAP4 SSTORE PUSH1 0x40 MLOAD SWAP2 AND SWAP2 SWAP1 DUP3 SWAP1 PUSH32 0x8BE0079C531659141344CD1FD0A4F28419497F9722A3DAAFE3B4186F6B6457E0 SWAP1 PUSH1 0x0 SWAP1 LOG3 POP POP JUMP JUMPDEST DUP2 PUSH1 0x1 PUSH1 0x1 PUSH1 0xA0 SHL SUB AND DUP4 PUSH1 0x1 PUSH1 0x1 PUSH1 0xA0 SHL SUB AND SUB PUSH2 0x1CEF JUMPI PUSH1 0x40 MLOAD PUSH3 0x461BCD PUSH1 0xE5 SHL DUP2 MSTORE PUSH1 0x20 PUSH1 0x4 DUP3 ADD MSTORE PUSH1 0x19 PUSH1 0x24 DUP3 ADD MSTORE PUSH32 0x4552433732313A20617070726F766520746F2063616C6C657200000000000000 PUSH1 0x44 DUP3 ADD MSTORE PUSH1 0x64 ADD PUSH2 0x713 JUMP JUMPDEST PUSH1 0x1 PUSH1 0x1 PUSH1 0xA0 SHL SUB DUP4 DUP2 AND PUSH1 0x0 DUP2 DUP2 MSTORE PUSH1 0x5 PUSH1 0x20 SWAP1 DUP2 MSTORE PUSH1 0x40 DUP1 DUP4 KECCAK256 SWAP5 DUP8 AND DUP1 DUP5 MSTORE SWAP5 DUP3 MSTORE SWAP2 DUP3 SWAP1 KECCAK256 DUP1 SLOAD PUSH1 0xFF NOT AND DUP7 ISZERO ISZERO SWAP1 DUP2 OR SWAP1 SWAP2 SSTORE SWAP2 MLOAD SWAP2 DUP3 MSTORE PUSH32 0x17307EAB39AB6107E8899845AD3D59BD9653F200F220920489CA2B5937696C31 SWAP2 ADD PUSH1 0x40 MLOAD DUP1 SWAP2 SUB SWAP1 LOG3 POP POP POP JUMP JUMPDEST PUSH2 0x1D64 PUSH2 0x2052 JUMP JUMPDEST PUSH1 0xA DUP1 SLOAD PUSH1 0xFF PUSH1 0xA0 SHL NOT AND SWAP1 SSTORE PUSH32 0x5DB9EE0A495BF2E6FF9C91A7834C1BA4FDD244A5E8AA4E537BD38AEAE4B073AA CALLER PUSH2 0x1C1F JUMP JUMPDEST PUSH2 0x1DA3 DUP5 DUP5 DUP5 PUSH2 0x1758 JUMP JUMPDEST PUSH2 0x1DAF DUP5 DUP5 DUP5 DUP5 PUSH2 0x20A2 JUMP JUMPDEST PUSH2 0xA05 JUMPI PUSH1 0x40 MLOAD PUSH3 0x461BCD PUSH1 0xE5 SHL DUP2 MSTORE PUSH1 0x4 ADD PUSH2 0x713 SWAP1 PUSH2 0x2AEC JUMP JUMPDEST PUSH1 0x60 PUSH1 0x0 PUSH2 0x1DD8 DUP4 PUSH2 0x21A3 JUMP JUMPDEST PUSH1 0x1 ADD SWAP1 POP PUSH1 0x0 DUP2 PUSH8 0xFFFFFFFFFFFFFFFF DUP2 GT ISZERO PUSH2 0x1DF8 JUMPI PUSH2 0x1DF8 PUSH2 0x27BD JUMP JUMPDEST PUSH1 0x40 MLOAD SWAP1 DUP1 DUP3 MSTORE DUP1 PUSH1 0x1F ADD PUSH1 0x1F NOT AND PUSH1 0x20 ADD DUP3 ADD PUSH1 0x40 MSTORE DUP1 ISZERO PUSH2 0x1E22 JUMPI PUSH1 0x20 DUP3 ADD DUP2 DUP1 CALLDATASIZE DUP4 CALLDATACOPY ADD SWAP1 POP JUMPDEST POP SWAP1 POP DUP2 DUP2 ADD PUSH1 0x20 ADD JUMPDEST PUSH1 0x0 NOT ADD PUSH16 0x181899199A1A9B1B9C1CB0B131B232B3 PUSH1 0x81 SHL PUSH1 0xA DUP7 MOD BYTE DUP2 MSTORE8 PUSH1 0xA DUP6 DIV SWAP5 POP DUP5 PUSH2 0x1E2C JUMPI POP SWAP4 SWAP3 POP POP POP JUMP JUMPDEST PUSH1 0x0 DUP1 TIMESTAMP PUSH2 0x1E6D PUSH1 0x1 NUMBER PUSH2 0x29EA JUMP JUMPDEST BLOCKHASH CALLER PUSH1 0x40 MLOAD PUSH1 0x20 ADD PUSH2 0x1EA4 SWAP4 SWAP3 SWAP2 SWAP1 SWAP3 DUP4 MSTORE PUSH1 0x20 DUP4 ADD SWAP2 SWAP1 SWAP2 MSTORE PUSH1 0x60 SHL PUSH12 0xFFFFFFFFFFFFFFFFFFFFFFFF NOT AND PUSH1 0x40 DUP3 ADD MSTORE PUSH1 0x54 ADD SWAP1 JUMP JUMPDEST PUSH1 0x40 DUP1 MLOAD PUSH1 0x1F NOT DUP2 DUP5 SUB ADD DUP2 MSTORE SWAP2 SWAP1 MSTORE DUP1 MLOAD PUSH1 0x20 SWAP1 SWAP2 ADD KECCAK256 SWAP1 POP PUSH2 0x101F DUP4 DUP3 PUSH2 0x2A58 JUMP JUMPDEST PUSH1 0x0 DUP1 PUSH2 0x1ED5 PUSH1 0x64 PUSH2 0x1E5E JUMP JUMPDEST SWAP1 POP PUSH1 0x5 DUP2 LT ISZERO PUSH2 0x1EE8 JUMPI PUSH1 0x3 SWAP2 POP POP SWAP1 JUMP JUMPDEST PUSH2 0x1EF4 PUSH1 0x14 PUSH1 0x5 PUSH2 0x29FD JUMP JUMPDEST DUP2 LT ISZERO PUSH2 0x1F03 JUMPI PUSH1 0x2 SWAP2 POP POP SWAP1 JUMP JUMPDEST PUSH1 0x1 SWAP2 POP POP SWAP1 JUMP JUMPDEST PUSH2 0x8F5 DUP3 DUP3 PUSH1 0x40 MLOAD DUP1 PUSH1 0x20 ADD PUSH1 0x40 MSTORE DUP1 PUSH1 0x0 DUP2 MSTORE POP PUSH2 0x227B JUMP JUMPDEST PUSH1 0x1 DUP2 GT ISZERO PUSH2 0x1F94 JUMPI PUSH1 0x40 MLOAD PUSH3 0x461BCD PUSH1 0xE5 SHL DUP2 MSTORE PUSH1 0x20 PUSH1 0x4 DUP3 ADD MSTORE PUSH1 0x35 PUSH1 0x24 DUP3 ADD MSTORE PUSH32 0x455243373231456E756D657261626C653A20636F6E7365637574697665207472 PUSH1 0x44 DUP3 ADD MSTORE PUSH21 0x185B9CD9995C9CC81B9BDD081CDD5C1C1BDC9D1959 PUSH1 0x5A SHL PUSH1 0x64 DUP3 ADD MSTORE PUSH1 0x84 ADD PUSH2 0x713 JUMP JUMPDEST DUP2 PUSH1 0x1 PUSH1 0x1 PUSH1 0xA0 SHL SUB DUP6 AND PUSH2 0x1FF0 JUMPI PUSH2 0x1FEB DUP2 PUSH1 0x8 DUP1 SLOAD PUSH1 0x0 DUP4 DUP2 MSTORE PUSH1 0x9 PUSH1 0x20 MSTORE PUSH1 0x40 DUP2 KECCAK256 DUP3 SWAP1 SSTORE PUSH1 0x1 DUP3 ADD DUP4 SSTORE SWAP2 SWAP1 SWAP2 MSTORE PUSH32 0xF3F7A9FE364FAAB93B216DA50A3214154F22A0A2B415B23A84C8169E8B636EE3 ADD SSTORE JUMP JUMPDEST PUSH2 0x2013 JUMP JUMPDEST DUP4 PUSH1 0x1 PUSH1 0x1 PUSH1 0xA0 SHL SUB AND DUP6 PUSH1 0x1 PUSH1 0x1 PUSH1 0xA0 SHL SUB AND EQ PUSH2 0x2013 JUMPI PUSH2 0x2013 DUP6 DUP3 PUSH2 0x22AE JUMP JUMPDEST PUSH1 0x1 PUSH1 0x1 PUSH1 0xA0 SHL SUB DUP5 AND PUSH2 0x202F JUMPI PUSH2 0x202A DUP2 PUSH2 0x234B JUMP JUMPDEST PUSH2 0xD78 JUMP JUMPDEST DUP5 PUSH1 0x1 PUSH1 0x1 PUSH1 0xA0 SHL SUB AND DUP5 PUSH1 0x1 PUSH1 0x1 PUSH1 0xA0 SHL SUB AND EQ PUSH2 0xD78 JUMPI PUSH2 0xD78 DUP5 DUP3 PUSH2 0x23FA JUMP JUMPDEST PUSH1 0xA SLOAD PUSH1 0x1 PUSH1 0xA0 SHL SWAP1 DIV PUSH1 0xFF AND PUSH2 0xD8F JUMPI PUSH1 0x40 MLOAD PUSH3 0x461BCD PUSH1 0xE5 SHL DUP2 MSTORE PUSH1 0x20 PUSH1 0x4 DUP3 ADD MSTORE PUSH1 0x14 PUSH1 0x24 DUP3 ADD MSTORE PUSH20 0x14185D5CD8589B194E881B9BDD081C185D5CD959 PUSH1 0x62 SHL PUSH1 0x44 DUP3 ADD MSTORE PUSH1 0x64 ADD PUSH2 0x713 JUMP JUMPDEST PUSH1 0x0 PUSH1 0x1 PUSH1 0x1 PUSH1 0xA0 SHL SUB DUP5 AND EXTCODESIZE ISZERO PUSH2 0x2198 JUMPI PUSH1 0x40 MLOAD PUSH4 0xA85BD01 PUSH1 0xE1 SHL DUP2 MSTORE PUSH1 0x1 PUSH1 0x1 PUSH1 0xA0 SHL SUB DUP6 AND SWAP1 PUSH4 0x150B7A02 SWAP1 PUSH2 0x20E6 SWAP1 CALLER SWAP1 DUP10 SWAP1 DUP9 SWAP1 DUP9 SWAP1 PUSH1 0x4 ADD PUSH2 0x2B3E JUMP JUMPDEST PUSH1 0x20 PUSH1 0x40 MLOAD DUP1 DUP4 SUB DUP2 PUSH1 0x0 DUP8 GAS CALL SWAP3 POP POP POP DUP1 ISZERO PUSH2 0x2121 JUMPI POP PUSH1 0x40 DUP1 MLOAD PUSH1 0x1F RETURNDATASIZE SWAP1 DUP2 ADD PUSH1 0x1F NOT AND DUP3 ADD SWAP1 SWAP3 MSTORE PUSH2 0x211E SWAP2 DUP2 ADD SWAP1 PUSH2 0x2B7B JUMP JUMPDEST PUSH1 0x1 JUMPDEST PUSH2 0x217E JUMPI RETURNDATASIZE DUP1 DUP1 ISZERO PUSH2 0x214F JUMPI PUSH1 0x40 MLOAD SWAP2 POP PUSH1 0x1F NOT PUSH1 0x3F RETURNDATASIZE ADD AND DUP3 ADD PUSH1 0x40 MSTORE RETURNDATASIZE DUP3 MSTORE RETURNDATASIZE PUSH1 0x0 PUSH1 0x20 DUP5 ADD RETURNDATACOPY PUSH2 0x2154 JUMP JUMPDEST PUSH1 0x60 SWAP2 POP JUMPDEST POP DUP1 MLOAD PUSH1 0x0 SUB PUSH2 0x2176 JUMPI PUSH1 0x40 MLOAD PUSH3 0x461BCD PUSH1 0xE5 SHL DUP2 MSTORE PUSH1 0x4 ADD PUSH2 0x713 SWAP1 PUSH2 0x2AEC JUMP JUMPDEST DUP1 MLOAD DUP2 PUSH1 0x20 ADD REVERT JUMPDEST PUSH1 0x1 PUSH1 0x1 PUSH1 0xE0 SHL SUB NOT AND PUSH4 0xA85BD01 PUSH1 0xE1 SHL EQ SWAP1 POP PUSH2 0x1750 JUMP JUMPDEST POP PUSH1 0x1 SWAP5 SWAP4 POP POP POP POP JUMP JUMPDEST PUSH1 0x0 DUP1 PUSH19 0x184F03E93FF9F4DAA797ED6E38ED64BF6A1F01 PUSH1 0x40 SHL DUP4 LT PUSH2 0x21E2 JUMPI PUSH19 0x184F03E93FF9F4DAA797ED6E38ED64BF6A1F01 PUSH1 0x40 SHL DUP4 DIV SWAP3 POP PUSH1 0x40 ADD JUMPDEST PUSH14 0x4EE2D6D415B85ACEF8100000000 DUP4 LT PUSH2 0x220E JUMPI PUSH14 0x4EE2D6D415B85ACEF8100000000 DUP4 DIV SWAP3 POP PUSH1 0x20 ADD JUMPDEST PUSH7 0x2386F26FC10000 DUP4 LT PUSH2 0x222C JUMPI PUSH7 0x2386F26FC10000 DUP4 DIV SWAP3 POP PUSH1 0x10 ADD JUMPDEST PUSH4 0x5F5E100 DUP4 LT PUSH2 0x2244 JUMPI PUSH4 0x5F5E100 DUP4 DIV SWAP3 POP PUSH1 0x8 ADD JUMPDEST PUSH2 0x2710 DUP4 LT PUSH2 0x2258 JUMPI PUSH2 0x2710 DUP4 DIV SWAP3 POP PUSH1 0x4 ADD JUMPDEST PUSH1 0x64 DUP4 LT PUSH2 0x226A JUMPI PUSH1 0x64 DUP4 DIV SWAP3 POP PUSH1 0x2 ADD JUMPDEST PUSH1 0xA DUP4 LT PUSH2 0x5E0 JUMPI PUSH1 0x1 ADD SWAP3 SWAP2 POP POP JUMP JUMPDEST PUSH2 0x2285 DUP4 DUP4 PUSH2 0x243E JUMP JUMPDEST PUSH2 0x2292 PUSH1 0x0 DUP5 DUP5 DUP5 PUSH2 0x20A2 JUMP JUMPDEST PUSH2 0x7B4 JUMPI PUSH1 0x40 MLOAD PUSH3 0x461BCD PUSH1 0xE5 SHL DUP2 MSTORE PUSH1 0x4 ADD PUSH2 0x713 SWAP1 PUSH2 0x2AEC JUMP JUMPDEST PUSH1 0x0 PUSH1 0x1 PUSH2 0x22BB DUP5 PUSH2 0xEAE JUMP JUMPDEST PUSH2 0x22C5 SWAP2 SWAP1 PUSH2 0x29EA JUMP JUMPDEST PUSH1 0x0 DUP4 DUP2 MSTORE PUSH1 0x7 PUSH1 0x20 MSTORE PUSH1 0x40 SWAP1 KECCAK256 SLOAD SWAP1 SWAP2 POP DUP1 DUP3 EQ PUSH2 0x2318 JUMPI PUSH1 0x1 PUSH1 0x1 PUSH1 0xA0 SHL SUB DUP5 AND PUSH1 0x0 SWAP1 DUP2 MSTORE PUSH1 0x6 PUSH1 0x20 SWAP1 DUP2 MSTORE PUSH1 0x40 DUP1 DUP4 KECCAK256 DUP6 DUP5 MSTORE DUP3 MSTORE DUP1 DUP4 KECCAK256 SLOAD DUP5 DUP5 MSTORE DUP2 DUP5 KECCAK256 DUP2 SWAP1 SSTORE DUP4 MSTORE PUSH1 0x7 SWAP1 SWAP2 MSTORE SWAP1 KECCAK256 DUP2 SWAP1 SSTORE JUMPDEST POP PUSH1 0x0 SWAP2 DUP3 MSTORE PUSH1 0x7 PUSH1 0x20 SWAP1 DUP2 MSTORE PUSH1 0x40 DUP1 DUP5 KECCAK256 DUP5 SWAP1 SSTORE PUSH1 0x1 PUSH1 0x1 PUSH1 0xA0 SHL SUB SWAP1 SWAP5 AND DUP4 MSTORE PUSH1 0x6 DUP2 MSTORE DUP4 DUP4 KECCAK256 SWAP2 DUP4 MSTORE MSTORE SWAP1 DUP2 KECCAK256 SSTORE JUMP JUMPDEST PUSH1 0x8 SLOAD PUSH1 0x0 SWAP1 PUSH2 0x235D SWAP1 PUSH1 0x1 SWAP1 PUSH2 0x29EA JUMP JUMPDEST PUSH1 0x0 DUP4 DUP2 MSTORE PUSH1 0x9 PUSH1 0x20 MSTORE PUSH1 0x40 DUP2 KECCAK256 SLOAD PUSH1 0x8 DUP1 SLOAD SWAP4 SWAP5 POP SWAP1 SWAP3 DUP5 SWAP1 DUP2 LT PUSH2 0x2385 JUMPI PUSH2 0x2385 PUSH2 0x291C JUMP JUMPDEST SWAP1 PUSH1 0x0 MSTORE PUSH1 0x20 PUSH1 0x0 KECCAK256 ADD SLOAD SWAP1 POP DUP1 PUSH1 0x8 DUP4 DUP2 SLOAD DUP2 LT PUSH2 0x23A6 JUMPI PUSH2 0x23A6 PUSH2 0x291C JUMP JUMPDEST PUSH1 0x0 SWAP2 DUP3 MSTORE PUSH1 0x20 DUP1 DUP4 KECCAK256 SWAP1 SWAP2 ADD SWAP3 SWAP1 SWAP3 SSTORE DUP3 DUP2 MSTORE PUSH1 0x9 SWAP1 SWAP2 MSTORE PUSH1 0x40 DUP1 DUP3 KECCAK256 DUP5 SWAP1 SSTORE DUP6 DUP3 MSTORE DUP2 KECCAK256 SSTORE PUSH1 0x8 DUP1 SLOAD DUP1 PUSH2 0x23DE JUMPI PUSH2 0x23DE PUSH2 0x2A7A JUMP JUMPDEST PUSH1 0x1 SWAP1 SUB DUP2 DUP2 SWAP1 PUSH1 0x0 MSTORE PUSH1 0x20 PUSH1 0x0 KECCAK256 ADD PUSH1 0x0 SWAP1 SSTORE SWAP1 SSTORE POP POP POP POP JUMP JUMPDEST PUSH1 0x0 PUSH2 0x2405 DUP4 PUSH2 0xEAE JUMP JUMPDEST PUSH1 0x1 PUSH1 0x1 PUSH1 0xA0 SHL SUB SWAP1 SWAP4 AND PUSH1 0x0 SWAP1 DUP2 MSTORE PUSH1 0x6 PUSH1 0x20 SWAP1 DUP2 MSTORE PUSH1 0x40 DUP1 DUP4 KECCAK256 DUP7 DUP5 MSTORE DUP3 MSTORE DUP1 DUP4 KECCAK256 DUP6 SWAP1 SSTORE SWAP4 DUP3 MSTORE PUSH1 0x7 SWAP1 MSTORE SWAP2 SWAP1 SWAP2 KECCAK256 SWAP2 SWAP1 SWAP2 SSTORE POP JUMP JUMPDEST PUSH1 0x1 PUSH1 0x1 PUSH1 0xA0 SHL SUB DUP3 AND PUSH2 0x2494 JUMPI PUSH1 0x40 MLOAD PUSH3 0x461BCD PUSH1 0xE5 SHL DUP2 MSTORE PUSH1 0x20 PUSH1 0x4 DUP3 ADD DUP2 SWAP1 MSTORE PUSH1 0x24 DUP3 ADD MSTORE PUSH32 0x4552433732313A206D696E7420746F20746865207A65726F2061646472657373 PUSH1 0x44 DUP3 ADD MSTORE PUSH1 0x64 ADD PUSH2 0x713 JUMP JUMPDEST PUSH1 0x0 DUP2 DUP2 MSTORE PUSH1 0x2 PUSH1 0x20 MSTORE PUSH1 0x40 SWAP1 KECCAK256 SLOAD PUSH1 0x1 PUSH1 0x1 PUSH1 0xA0 SHL SUB AND ISZERO PUSH2 0x24F9 JUMPI PUSH1 0x40 MLOAD PUSH3 0x461BCD PUSH1 0xE5 SHL DUP2 MSTORE PUSH1 0x20 PUSH1 0x4 DUP3 ADD MSTORE PUSH1 0x1C PUSH1 0x24 DUP3 ADD MSTORE PUSH32 0x4552433732313A20746F6B656E20616C7265616479206D696E74656400000000 PUSH1 0x44 DUP3 ADD MSTORE PUSH1 0x64 ADD PUSH2 0x713 JUMP JUMPDEST PUSH2 0x2507 PUSH1 0x0 DUP4 DUP4 PUSH1 0x1 PUSH2 0x1F25 JUMP JUMPDEST PUSH1 0x0 DUP2 DUP2 MSTORE PUSH1 0x2 PUSH1 0x20 MSTORE PUSH1 0x40 SWAP1 KECCAK256 SLOAD PUSH1 0x1 PUSH1 0x1 PUSH1 0xA0 SHL SUB AND ISZERO PUSH2 0x256C JUMPI PUSH1 0x40 MLOAD PUSH3 0x461BCD PUSH1 0xE5 SHL DUP2 MSTORE PUSH1 0x20 PUSH1 0x4 DUP3 ADD MSTORE PUSH1 0x1C PUSH1 0x24 DUP3 ADD MSTORE PUSH32 0x4552433732313A20746F6B656E20616C7265616479206D696E74656400000000 PUSH1 0x44 DUP3 ADD MSTORE PUSH1 0x64 ADD PUSH2 0x713 JUMP JUMPDEST PUSH1 0x1 PUSH1 0x1 PUSH1 0xA0 SHL SUB DUP3 AND PUSH1 0x0 DUP2 DUP2 MSTORE PUSH1 0x3 PUSH1 0x20 SWAP1 DUP2 MSTORE PUSH1 0x40 DUP1 DUP4 KECCAK256 DUP1 SLOAD PUSH1 0x1 ADD SWAP1 SSTORE DUP5 DUP4 MSTORE PUSH1 0x2 SWAP1 SWAP2 MSTORE DUP1 DUP3 KECCAK256 DUP1 SLOAD PUSH1 0x1 PUSH1 0x1 PUSH1 0xA0 SHL SUB NOT AND DUP5 OR SWAP1 SSTORE MLOAD DUP4 SWAP3 SWAP2 SWAP1 PUSH32 0xDDF252AD1BE2C89B69C2B068FC378DAA952BA7F163C4A11628F55A4DF523B3EF SWAP1 DUP3 SWAP1 LOG4 POP POP JUMP JUMPDEST PUSH1 0x1 PUSH1 0x1 PUSH1 0xE0 SHL SUB NOT DUP2 AND DUP2 EQ PUSH2 0x109C JUMPI PUSH1 0x0 DUP1 REVERT JUMPDEST PUSH1 0x0 PUSH1 0x20 DUP3 DUP5 SUB SLT ISZERO PUSH2 0x25FF JUMPI PUSH1 0x0 DUP1 REVERT JUMPDEST DUP2 CALLDATALOAD PUSH2 0x101F DUP2 PUSH2 0x25D7 JUMP JUMPDEST PUSH1 0x0 JUMPDEST DUP4 DUP2 LT ISZERO PUSH2 0x2625 JUMPI DUP2 DUP2 ADD MLOAD DUP4 DUP3 ADD MSTORE PUSH1 0x20 ADD PUSH2 0x260D JUMP JUMPDEST POP POP PUSH1 0x0 SWAP2 ADD MSTORE JUMP JUMPDEST PUSH1 0x0 DUP2 MLOAD DUP1 DUP5 MSTORE PUSH2 0x2646 DUP2 PUSH1 0x20 DUP7 ADD PUSH1 0x20 DUP7 ADD PUSH2 0x260A JUMP JUMPDEST PUSH1 0x1F ADD PUSH1 0x1F NOT AND SWAP3 SWAP1 SWAP3 ADD PUSH1 0x20 ADD SWAP3 SWAP2 POP POP JUMP JUMPDEST PUSH1 0x20 DUP2 MSTORE PUSH1 0x0 PUSH2 0x101F PUSH1 0x20 DUP4 ADD DUP5 PUSH2 0x262E JUMP JUMPDEST PUSH1 0x0 PUSH1 0x20 DUP3 DUP5 SUB SLT ISZERO PUSH2 0x267F JUMPI PUSH1 0x0 DUP1 REVERT JUMPDEST POP CALLDATALOAD SWAP2 SWAP1 POP JUMP JUMPDEST DUP1 CALLDATALOAD PUSH1 0x1 PUSH1 0x1 PUSH1 0xA0 SHL SUB DUP2 AND DUP2 EQ PUSH2 0x269D JUMPI PUSH1 0x0 DUP1 REVERT JUMPDEST SWAP2 SWAP1 POP JUMP JUMPDEST PUSH1 0x0 DUP1 PUSH1 0x40 DUP4 DUP6 SUB SLT ISZERO PUSH2 0x26B5 JUMPI PUSH1 0x0 DUP1 REVERT JUMPDEST PUSH2 0x26BE DUP4 PUSH2 0x2686 JUMP JUMPDEST SWAP5 PUSH1 0x20 SWAP4 SWAP1 SWAP4 ADD CALLDATALOAD SWAP4 POP POP POP JUMP JUMPDEST PUSH1 0x0 PUSH1 0x20 DUP3 DUP5 SUB SLT ISZERO PUSH2 0x26DE JUMPI PUSH1 0x0 DUP1 REVERT JUMPDEST DUP2 CALLDATALOAD PUSH1 0xFF DUP2 AND DUP2 EQ PUSH2 0x101F JUMPI PUSH1 0x0 DUP1 REVERT JUMPDEST PUSH1 0x0 DUP1 PUSH1 0x0 PUSH1 0x60 DUP5 DUP7 SUB SLT ISZERO PUSH2 0x2704 JUMPI PUSH1 0x0 DUP1 REVERT JUMPDEST PUSH2 0x270D DUP5 PUSH2 0x2686 JUMP JUMPDEST SWAP3 POP PUSH2 0x271B PUSH1 0x20 DUP6 ADD PUSH2 0x2686 JUMP JUMPDEST SWAP2 POP PUSH1 0x40 DUP5 ADD CALLDATALOAD SWAP1 POP SWAP3 POP SWAP3 POP SWAP3 JUMP JUMPDEST PUSH1 0x0 DUP1 PUSH1 0x0 DUP1 PUSH1 0x80 DUP6 DUP8 SUB SLT ISZERO PUSH2 0x2741 JUMPI PUSH1 0x0 DUP1 REVERT JUMPDEST POP POP DUP3 CALLDATALOAD SWAP5 PUSH1 0x20 DUP5 ADD CALLDATALOAD SWAP5 POP PUSH1 0x40 DUP5 ADD CALLDATALOAD SWAP4 PUSH1 0x60 ADD CALLDATALOAD SWAP3 POP SWAP1 POP JUMP JUMPDEST PUSH1 0x0 PUSH1 0x20 DUP3 DUP5 SUB SLT ISZERO PUSH2 0x276F JUMPI PUSH1 0x0 DUP1 REVERT JUMPDEST PUSH2 0x101F DUP3 PUSH2 0x2686 JUMP JUMPDEST DUP1 ISZERO ISZERO DUP2 EQ PUSH2 0x109C JUMPI PUSH1 0x0 DUP1 REVERT JUMPDEST PUSH1 0x0 DUP1 PUSH1 0x40 DUP4 DUP6 SUB SLT ISZERO PUSH2 0x2799 JUMPI PUSH1 0x0 DUP1 REVERT JUMPDEST PUSH2 0x27A2 DUP4 PUSH2 0x2686 JUMP JUMPDEST SWAP2 POP PUSH1 0x20 DUP4 ADD CALLDATALOAD PUSH2 0x27B2 DUP2 PUSH2 0x2778 JUMP JUMPDEST DUP1 SWAP2 POP POP SWAP3 POP SWAP3 SWAP1 POP JUMP JUMPDEST PUSH4 0x4E487B71 PUSH1 0xE0 SHL PUSH1 0x0 MSTORE PUSH1 0x41 PUSH1 0x4 MSTORE PUSH1 0x24 PUSH1 0x0 REVERT JUMPDEST PUSH1 0x0 DUP1 PUSH1 0x0 DUP1 PUSH1 0x80 DUP6 DUP8 SUB SLT ISZERO PUSH2 0x27E9 JUMPI PUSH1 0x0 DUP1 REVERT JUMPDEST PUSH2 0x27F2 DUP6 PUSH2 0x2686 JUMP JUMPDEST SWAP4 POP PUSH2 0x2800 PUSH1 0x20 DUP7 ADD PUSH2 0x2686 JUMP JUMPDEST SWAP3 POP PUSH1 0x40 DUP6 ADD CALLDATALOAD SWAP2 POP PUSH1 0x60 DUP6 ADD CALLDATALOAD PUSH8 0xFFFFFFFFFFFFFFFF DUP1 DUP3 GT ISZERO PUSH2 0x2824 JUMPI PUSH1 0x0 DUP1 REVERT JUMPDEST DUP2 DUP8 ADD SWAP2 POP DUP8 PUSH1 0x1F DUP4 ADD SLT PUSH2 0x2838 JUMPI PUSH1 0x0 DUP1 REVERT JUMPDEST DUP2 CALLDATALOAD DUP2 DUP2 GT ISZERO PUSH2 0x284A JUMPI PUSH2 0x284A PUSH2 0x27BD JUMP JUMPDEST PUSH1 0x40 MLOAD PUSH1 0x1F DUP3 ADD PUSH1 0x1F NOT SWAP1 DUP2 AND PUSH1 0x3F ADD AND DUP2 ADD SWAP1 DUP4 DUP3 GT DUP2 DUP4 LT OR ISZERO PUSH2 0x2872 JUMPI PUSH2 0x2872 PUSH2 0x27BD JUMP JUMPDEST DUP2 PUSH1 0x40 MSTORE DUP3 DUP2 MSTORE DUP11 PUSH1 0x20 DUP5 DUP8 ADD ADD GT ISZERO PUSH2 0x288B JUMPI PUSH1 0x0 DUP1 REVERT JUMPDEST DUP3 PUSH1 0x20 DUP7 ADD PUSH1 0x20 DUP4 ADD CALLDATACOPY PUSH1 0x0 PUSH1 0x20 DUP5 DUP4 ADD ADD MSTORE DUP1 SWAP6 POP POP POP POP POP POP SWAP3 SWAP6 SWAP2 SWAP5 POP SWAP3 POP JUMP JUMPDEST PUSH1 0x0 DUP1 PUSH1 0x40 DUP4 DUP6 SUB SLT ISZERO PUSH2 0x28C2 JUMPI PUSH1 0x0 DUP1 REVERT JUMPDEST PUSH2 0x28CB DUP4 PUSH2 0x2686 JUMP JUMPDEST SWAP2 POP PUSH2 0x28D9 PUSH1 0x20 DUP5 ADD PUSH2 0x2686 JUMP JUMPDEST SWAP1 POP SWAP3 POP SWAP3 SWAP1 POP JUMP JUMPDEST PUSH1 0x1 DUP2 DUP2 SHR SWAP1 DUP3 AND DUP1 PUSH2 0x28F6 JUMPI PUSH1 0x7F DUP3 AND SWAP2 POP JUMPDEST PUSH1 0x20 DUP3 LT DUP2 SUB PUSH2 0x2916 JUMPI PUSH4 0x4E487B71 PUSH1 0xE0 SHL PUSH1 0x0 MSTORE PUSH1 0x22 PUSH1 0x4 MSTORE PUSH1 0x24 PUSH1 0x0 REVERT JUMPDEST POP SWAP2 SWAP1 POP JUMP JUMPDEST PUSH4 0x4E487B71 PUSH1 0xE0 SHL PUSH1 0x0 MSTORE PUSH1 0x32 PUSH1 0x4 MSTORE PUSH1 0x24 PUSH1 0x0 REVERT JUMPDEST PUSH4 0x4E487B71 PUSH1 0xE0 SHL PUSH1 0x0 MSTORE PUSH1 0x11 PUSH1 0x4 MSTORE PUSH1 0x24 PUSH1 0x0 REVERT JUMPDEST PUSH1 0x0 PUSH1 0xFF DUP3 AND PUSH1 0xFF DUP2 SUB PUSH2 0x295E JUMPI PUSH2 0x295E PUSH2 0x2932 JUMP JUMPDEST PUSH1 0x1 ADD SWAP3 SWAP2 POP POP JUMP JUMPDEST PUSH1 0x0 PUSH1 0x20 DUP3 DUP5 SUB SLT ISZERO PUSH2 0x2979 JUMPI PUSH1 0x0 DUP1 REVERT JUMPDEST DUP2 MLOAD PUSH2 0x101F DUP2 PUSH2 0x2778 JUMP JUMPDEST PUSH1 0x20 DUP1 DUP3 MSTORE PUSH1 0x2D SWAP1 DUP3 ADD MSTORE PUSH32 0x4552433732313A2063616C6C6572206973206E6F7420746F6B656E206F776E65 PUSH1 0x40 DUP3 ADD MSTORE PUSH13 0x1C881BDC88185C1C1C9BDD9959 PUSH1 0x9A SHL PUSH1 0x60 DUP3 ADD MSTORE PUSH1 0x80 ADD SWAP1 JUMP JUMPDEST PUSH1 0x0 PUSH1 0x20 DUP3 DUP5 SUB SLT ISZERO PUSH2 0x29E3 JUMPI PUSH1 0x0 DUP1 REVERT JUMPDEST POP MLOAD SWAP2 SWAP1 POP JUMP JUMPDEST DUP2 DUP2 SUB DUP2 DUP2 GT ISZERO PUSH2 0x5E0 JUMPI PUSH2 0x5E0 PUSH2 0x2932 JUMP JUMPDEST DUP1 DUP3 ADD DUP1 DUP3 GT ISZERO PUSH2 0x5E0 JUMPI PUSH2 0x5E0 PUSH2 0x2932 JUMP JUMPDEST PUSH1 0x0 DUP4 MLOAD PUSH2 0x2A22 DUP2 DUP5 PUSH1 0x20 DUP9 ADD PUSH2 0x260A JUMP JUMPDEST DUP4 MLOAD SWAP1 DUP4 ADD SWAP1 PUSH2 0x2A36 DUP2 DUP4 PUSH1 0x20 DUP9 ADD PUSH2 0x260A JUMP JUMPDEST ADD SWAP5 SWAP4 POP POP POP POP JUMP JUMPDEST PUSH1 0x0 PUSH1 0x1 DUP3 ADD PUSH2 0x2A51 JUMPI PUSH2 0x2A51 PUSH2 0x2932 JUMP JUMPDEST POP PUSH1 0x1 ADD SWAP1 JUMP JUMPDEST PUSH1 0x0 DUP3 PUSH2 0x2A75 JUMPI PUSH4 0x4E487B71 PUSH1 0xE0 SHL PUSH1 0x0 MSTORE PUSH1 0x12 PUSH1 0x4 MSTORE PUSH1 0x24 PUSH1 0x0 REVERT JUMPDEST POP MOD SWAP1 JUMP JUMPDEST PUSH4 0x4E487B71 PUSH1 0xE0 SHL PUSH1 0x0 MSTORE PUSH1 0x31 PUSH1 0x4 MSTORE PUSH1 0x24 PUSH1 0x0 REVERT JUMPDEST PUSH1 0x20 DUP1 DUP3 MSTORE PUSH1 0x25 SWAP1 DUP3 ADD MSTORE PUSH32 0x4552433732313A207472616E736665722066726F6D20696E636F727265637420 PUSH1 0x40 DUP3 ADD MSTORE PUSH5 0x37BBB732B9 PUSH1 0xD9 SHL PUSH1 0x60 DUP3 ADD MSTORE PUSH1 0x80 ADD SWAP1 JUMP JUMPDEST DUP1 DUP3 MUL DUP2 ISZERO DUP3 DUP3 DIV DUP5 EQ OR PUSH2 0x5E0 JUMPI PUSH2 0x5E0 PUSH2 0x2932 JUMP JUMPDEST PUSH1 0x20 DUP1 DUP3 MSTORE PUSH1 0x32 SWAP1 DUP3 ADD MSTORE PUSH32 0x4552433732313A207472616E7366657220746F206E6F6E204552433732315265 PUSH1 0x40 DUP3 ADD MSTORE PUSH18 0x31B2B4BB32B91034B6B83632B6B2B73A32B9 PUSH1 0x71 SHL PUSH1 0x60 DUP3 ADD MSTORE PUSH1 0x80 ADD SWAP1 JUMP JUMPDEST PUSH1 0x1 PUSH1 0x1 PUSH1 0xA0 SHL SUB DUP6 DUP2 AND DUP3 MSTORE DUP5 AND PUSH1 0x20 DUP3 ADD MSTORE PUSH1 0x40 DUP2 ADD DUP4 SWAP1 MSTORE PUSH1 0x80 PUSH1 0x60 DUP3 ADD DUP2 SWAP1 MSTORE PUSH1 0x0 SWAP1 PUSH2 0x2B71 SWAP1 DUP4 ADD DUP5 PUSH2 0x262E JUMP JUMPDEST SWAP7 SWAP6 POP POP POP POP POP POP JUMP JUMPDEST PUSH1 0x0 PUSH1 0x20 DUP3 DUP5 SUB SLT ISZERO PUSH2 0x2B8D JUMPI PUSH1 0x0 DUP1 REVERT JUMPDEST DUP2 MLOAD PUSH2 0x101F DUP2 PUSH2 0x25D7 JUMP INVALID LOG2 PUSH5 0x6970667358 0x22 SLT KECCAK256 0xAA PUSH16 0x8A8EB49BEBE55C3E42692CEBD4A41ED5 RETURNDATASIZE SGT 0xE1 DIV 0xB5 MOD PUSH32 0xD3378DDD9664E164736F6C634300081300330000000000000000000000000000 ",
  "sha1": "abaf783d4915a002cc30669ab134bb51bdc37291",
  "source": "// SPDX-License-Identifier: MIT\npragma solidity ^0.8.0;\n\nimport \"@openzeppelin/contracts/token/ERC721/extensions/ERC721Enumerable.sol\";\nimport \"@openzeppelin/contracts/token/ERC20/IERC20.sol\";\nimport \"@openzeppelin/contracts/access/Ownable.sol\";\nimport \"@openzeppelin/contracts/utils/Counters.sol\";\nimport \"@openzeppelin/contracts/security/Pausable.sol\";\n\ncontract CryptoBeastsNFT is ERC721Enumerable, Ownable, Pausable {\n    using Counters for Counters.Counter;\n\n    IERC20 public paymentToken;\n\n    uint256 public constant BOOSTER_PACK_COST = 50 * 10 ** 18;\n    uint256 public constant BURN_REWARD = 7 * 10 ** 18;\n\n    // Suministro del grupo inicial\n    uint256 private constant MAX_SUPPLY = 100;\n    uint256 private constant CANTIDAD_CRIATURAS_INICIALES = 21;\n    uint256 private constant CANTIDAD_HABILIDADES_INICIALES = 11;\n    uint256 private constant CANTIDAD_OBJETOS_INICIALES = 11;\n\n    // Probabilidades:\n    uint256 public constant LEGENDARY_PROBABILITY = 5;\n    uint256 public constant RARE_PROBABILITY = 20;\n    // Probabilidad de comÃºn = 100 - LEGENDARY_PROBABILITY - RARE_PROBABILITY\n\n    // Variables de estado para llevar la cuenta de cuÃ¡ntas cartas de cada tipo se han creado\n    uint256 public totalCriaturas;\n    uint256 public totalHabilidades;\n    uint256 public totalObjetos;\n\n    Counters.Counter private _tokenIdTracker;\n\n    struct Card {\n        // cardType: 0: Criatura, 1: Habilidad, 2: Objeto, es el mÃ³dulo 3 del cardId\n        uint256 cardId;\n        // string imageURI;\n        uint8 rarity;\n    }\n\n    // Mapping desde token ID a Card\n    mapping(uint256 => Card) public cards;\n\n    // Cantidad de cartas disponibles para cada cardId\n    mapping(uint256 => uint256) public cardStock;\n\n    // Limitar la cantidad de cartas que se pueden quemar por dÃ­a\n    uint256 public burnLimit = 10; // LÃ­mite de cartas quemadas por usuario en un perÃ­odo de tiempo\n    uint256 public burnTimeFrame = 86400; // PerÃ­odo de tiempo en segundos (86400 segundos = 24 horas)\n\n    mapping(address => uint256) private _burnedCards;\n    mapping(address => uint256) private _lastBurnTime;\n\n    // Array que lleva la lista de cartas disponibles por tipo\n    uint256[] public criaturasDisponibles;\n    uint256[] public habilidadesDisponibles;\n    uint256[] public objetosDisponibles;\n\n    // Constructor\n    constructor(address _paymentToken) ERC721(\"CryptoBeastsNFT\", \"CBNFT\") {\n        paymentToken = IERC20(_paymentToken);\n\n        totalCriaturas = 0;\n        totalHabilidades = 0;\n        totalObjetos = 0;\n\n        // Agrega el set inicial de cartas\n        _agregarSetCartas(\n            CANTIDAD_CRIATURAS_INICIALES,\n            CANTIDAD_HABILIDADES_INICIALES,\n            CANTIDAD_OBJETOS_INICIALES,\n            MAX_SUPPLY\n        );\n    }\n\n    function _getRandomNumber(\n        uint256 upperBound\n    ) private view returns (uint256) {\n        bytes32 randomHash = keccak256(\n            abi.encodePacked(\n                block.timestamp,\n                blockhash(block.number - 1),\n                msg.sender\n            )\n        );\n        return uint256(randomHash) % upperBound;\n    }\n\n    function _getRandomRarity() private view returns (uint8) {\n        uint256 random = _getRandomNumber(100);\n        if (random < LEGENDARY_PROBABILITY) {\n            return 3; // Legendaria\n        } else if (random < LEGENDARY_PROBABILITY + RARE_PROBABILITY) {\n            return 2; // Rara\n        } else {\n            // 75% de probabilidad\n            return 1; // ComÃºn\n        }\n    }\n\n    function mint(address to, uint256 _cardId) private {\n        require(_tokenIdTracker.current() < MAX_SUPPLY, \"No cards left\");\n        require(cardStock[_cardId] > 0, \"No stock left for this card\");\n\n        uint8 randomRarity = _getRandomRarity();\n\n        _tokenIdTracker.increment();\n        uint256 tokenId = _tokenIdTracker.current();\n\n        cards[tokenId] = Card(_cardId, randomRarity);\n        cardStock[_cardId] -= 1;\n\n        if (cardStock[_cardId] == 0) {\n            // Eliminar _cardId de la lista de disponibles\n            if (_cardId % 3 == 0) {\n                // Criatura\n                for (uint256 i = 0; i < criaturasDisponibles.length; i++) {\n                    if (criaturasDisponibles[i] == _cardId) {\n                        criaturasDisponibles[i] = criaturasDisponibles[\n                            criaturasDisponibles.length - 1\n                        ];\n                        criaturasDisponibles.pop();\n                        break;\n                    }\n                }\n            } else if (_cardId % 3 == 1) {\n                // Habilidad\n                for (uint256 i = 0; i < habilidadesDisponibles.length; i++) {\n                    if (habilidadesDisponibles[i] == _cardId) {\n                        habilidadesDisponibles[i] = habilidadesDisponibles[\n                            habilidadesDisponibles.length - 1\n                        ];\n                        habilidadesDisponibles.pop();\n                        break;\n                    }\n                }\n            } else {\n                // Objeto\n                for (uint256 i = 0; i < objetosDisponibles.length; i++) {\n                    if (objetosDisponibles[i] == _cardId) {\n                        objetosDisponibles[i] = objetosDisponibles[\n                            objetosDisponibles.length - 1\n                        ];\n                        objetosDisponibles.pop();\n                        break;\n                    }\n                }\n            }\n        }\n\n        _safeMint(to, tokenId);\n    }\n\n    // FunciÃ³n para agregar nuevos sets de cartas\n    function _agregarSetCartas(\n        uint256 cantidadCriaturas,\n        uint256 cantidadHabilidades,\n        uint256 cantidadObjetos,\n        uint256 stockInicial\n    ) private {\n        // AÃ±adir criaturas al cardStock\n        for (\n            uint256 i = totalCriaturas * 3;\n            i < (totalCriaturas + cantidadCriaturas) * 3;\n            i += 3\n        ) {\n            cardStock[i] = stockInicial;\n            criaturasDisponibles.push(i);\n        }\n\n        // AÃ±adir habilidades al cardStock\n        for (\n            uint256 i = totalHabilidades * 3 + 1;\n            i < (totalHabilidades + cantidadHabilidades) * 3 + 1;\n            i += 3\n        ) {\n            cardStock[i] = stockInicial;\n            habilidadesDisponibles.push(i);\n        }\n\n        // AÃ±adir objetos al cardStock\n        for (\n            uint256 i = totalObjetos * 3 + 2;\n            i < (totalObjetos + cantidadObjetos) * 3 + 2;\n            i += 3\n        ) {\n            cardStock[i] = stockInicial;\n            objetosDisponibles.push(i);\n        }\n\n        // Actualiza las variables de estado\n        totalCriaturas += cantidadCriaturas;\n        totalHabilidades += cantidadHabilidades;\n        totalObjetos += cantidadObjetos;\n    }\n\n    function buyBoosterPack(uint8 _cardType) external whenNotPaused {\n        require(_cardType >= 1 && _cardType <= 3, \"Invalid card type\");\n\n        for (uint8 i = 0; i < 5; i++) {\n            uint256[] memory randomCardIds = _getRandomCardId(_cardType, 5);\n            mint(msg.sender, randomCardIds[i]);\n        }\n\n        paymentToken.transferFrom(msg.sender, address(this), BOOSTER_PACK_COST);\n    }\n\n    // Permite cambiar el token de pago en caso de emergencia\n    function updatePaymentToken(address _paymentToken) external onlyOwner {\n        paymentToken = IERC20(_paymentToken);\n    }\n\n    function burn(uint256 tokenId) external {\n        require(\n            ownerOf(tokenId) == msg.sender,\n            \"Only the owner can burn this token\"\n        );\n        // Verifique que el contrato tiene suficiente saldo para pagar la recompensa\n        require(\n            paymentToken.balanceOf(address(this)) >= BURN_REWARD,\n            \"Contract has insufficient balance to pay reward\"\n        );\n\n        uint256 currentTime = block.timestamp;\n        uint256 userLastBurnTime = _lastBurnTime[msg.sender];\n\n        if (currentTime - userLastBurnTime > burnTimeFrame) {\n            // Reinicia el conteo de cartas quemadas si ha pasado el perÃ­odo de tiempo\n            _burnedCards[msg.sender] = 0;\n            _lastBurnTime[msg.sender] = currentTime;\n        }\n\n        require(\n            _burnedCards[msg.sender] < burnLimit,\n            \"Burn limit reached for this time frame\"\n        );\n\n        _burn(tokenId);\n\n        _burnedCards[msg.sender] += 1;\n\n        uint256 rewardAmount = BURN_REWARD;\n        paymentToken.transfer(msg.sender, rewardAmount);\n    }\n\n    function _getRandomCardId(\n        uint8 _cardType,\n        uint256 _numCards\n    ) private view returns (uint256[] memory) {\n        uint256[] memory cardIds = new uint256[](_numCards);\n        for (uint256 i = 0; i < _numCards; i++) {\n            if (_cardType == 1) {\n                uint256 randomIndex = _getRandomNumber(\n                    criaturasDisponibles.length\n                );\n                cardIds[i] = criaturasDisponibles[randomIndex];\n            } else if (_cardType == 2) {\n                uint256 randomIndex = _getRandomNumber(\n                    habilidadesDisponibles.length\n                );\n                cardIds[i] = habilidadesDisponibles[randomIndex];\n            } else {\n                uint256 randomIndex = _getRandomNumber(\n                    objetosDisponibles.length\n                );\n                cardIds[i] = objetosDisponibles[randomIndex];\n            }\n        }\n        return cardIds;\n    }\n\n    function remainingCards(uint256 _cardId) external view returns (uint256) {\n        return cardStock[_cardId];\n    }\n\n    // FunciÃ³n para retirar tokens del contrato (usada por el propietario del contrato)\n    function withdraw() external onlyOwner {\n        uint256 balance = paymentToken.balanceOf(address(this));\n        paymentToken.transfer(msg.sender, balance);\n    }\n\n    // FunciÃ³n pÃºblica para agregar nuevos sets de cartas, restringida al propietario del contrato\n    function addCardsSet(\n        uint256 cantidadCriaturas,\n        uint256 cantidadHabilidades,\n        uint256 cantidadObjetos,\n        uint256 stockInicial\n    ) external onlyOwner {\n        _agregarSetCartas(\n            cantidadCriaturas,\n            cantidadHabilidades,\n            cantidadObjetos,\n            stockInicial\n        );\n    }\n\n    function pauseContract() external onlyOwner {\n        _pause();\n    }\n\n    function unpauseContract() external onlyOwner {\n        _unpause();\n    }\n}\n",
  "sourcePath": "contracts/CryptoBeastsNFT.sol",
  "type": "contract"
}